{
  "_format": "hh-sol-artifact-1",
  "contractName": "MembershipNFT",
  "sourceName": "contracts/DAO/MembershipNFT.sol",
  "abi": [
    {
      "inputs": [],
      "stateMutability": "nonpayable",
      "type": "constructor"
    },
    {
      "inputs": [
        {
          "internalType": "address",
          "name": "sender",
          "type": "address"
        },
        {
          "internalType": "uint256",
          "name": "tokenId",
          "type": "uint256"
        },
        {
          "internalType": "address",
          "name": "owner",
          "type": "address"
        }
      ],
      "name": "ERC721IncorrectOwner",
      "type": "error"
    },
    {
      "inputs": [
        {
          "internalType": "address",
          "name": "operator",
          "type": "address"
        },
        {
          "internalType": "uint256",
          "name": "tokenId",
          "type": "uint256"
        }
      ],
      "name": "ERC721InsufficientApproval",
      "type": "error"
    },
    {
      "inputs": [
        {
          "internalType": "address",
          "name": "approver",
          "type": "address"
        }
      ],
      "name": "ERC721InvalidApprover",
      "type": "error"
    },
    {
      "inputs": [
        {
          "internalType": "address",
          "name": "operator",
          "type": "address"
        }
      ],
      "name": "ERC721InvalidOperator",
      "type": "error"
    },
    {
      "inputs": [
        {
          "internalType": "address",
          "name": "owner",
          "type": "address"
        }
      ],
      "name": "ERC721InvalidOwner",
      "type": "error"
    },
    {
      "inputs": [
        {
          "internalType": "address",
          "name": "receiver",
          "type": "address"
        }
      ],
      "name": "ERC721InvalidReceiver",
      "type": "error"
    },
    {
      "inputs": [
        {
          "internalType": "address",
          "name": "sender",
          "type": "address"
        }
      ],
      "name": "ERC721InvalidSender",
      "type": "error"
    },
    {
      "inputs": [
        {
          "internalType": "uint256",
          "name": "tokenId",
          "type": "uint256"
        }
      ],
      "name": "ERC721NonexistentToken",
      "type": "error"
    },
    {
      "anonymous": false,
      "inputs": [
        {
          "indexed": true,
          "internalType": "address",
          "name": "owner",
          "type": "address"
        },
        {
          "indexed": true,
          "internalType": "address",
          "name": "approved",
          "type": "address"
        },
        {
          "indexed": true,
          "internalType": "uint256",
          "name": "tokenId",
          "type": "uint256"
        }
      ],
      "name": "Approval",
      "type": "event"
    },
    {
      "anonymous": false,
      "inputs": [
        {
          "indexed": true,
          "internalType": "address",
          "name": "owner",
          "type": "address"
        },
        {
          "indexed": true,
          "internalType": "address",
          "name": "operator",
          "type": "address"
        },
        {
          "indexed": false,
          "internalType": "bool",
          "name": "approved",
          "type": "bool"
        }
      ],
      "name": "ApprovalForAll",
      "type": "event"
    },
    {
      "anonymous": false,
      "inputs": [
        {
          "indexed": false,
          "internalType": "address",
          "name": "member",
          "type": "address"
        },
        {
          "indexed": false,
          "internalType": "uint256",
          "name": "tokenId",
          "type": "uint256"
        }
      ],
      "name": "TokenIssued",
      "type": "event"
    },
    {
      "anonymous": false,
      "inputs": [
        {
          "indexed": true,
          "internalType": "address",
          "name": "from",
          "type": "address"
        },
        {
          "indexed": true,
          "internalType": "address",
          "name": "to",
          "type": "address"
        },
        {
          "indexed": true,
          "internalType": "uint256",
          "name": "tokenId",
          "type": "uint256"
        }
      ],
      "name": "Transfer",
      "type": "event"
    },
    {
      "anonymous": false,
      "inputs": [
        {
          "indexed": false,
          "internalType": "address",
          "name": "user",
          "type": "address"
        },
        {
          "indexed": false,
          "internalType": "uint256",
          "name": "votes",
          "type": "uint256"
        },
        {
          "indexed": false,
          "internalType": "uint256",
          "name": "participationAmount",
          "type": "uint256"
        }
      ],
      "name": "UserDataUpdated",
      "type": "event"
    },
    {
      "inputs": [
        {
          "internalType": "address",
          "name": "to",
          "type": "address"
        },
        {
          "internalType": "uint256",
          "name": "tokenId",
          "type": "uint256"
        }
      ],
      "name": "approve",
      "outputs": [],
      "stateMutability": "nonpayable",
      "type": "function"
    },
    {
      "inputs": [
        {
          "internalType": "address",
          "name": "owner",
          "type": "address"
        }
      ],
      "name": "balanceOf",
      "outputs": [
        {
          "internalType": "uint256",
          "name": "",
          "type": "uint256"
        }
      ],
      "stateMutability": "view",
      "type": "function"
    },
    {
      "inputs": [
        {
          "internalType": "uint256",
          "name": "tokenId",
          "type": "uint256"
        }
      ],
      "name": "getApproved",
      "outputs": [
        {
          "internalType": "address",
          "name": "",
          "type": "address"
        }
      ],
      "stateMutability": "view",
      "type": "function"
    },
    {
      "inputs": [
        {
          "internalType": "address",
          "name": "user",
          "type": "address"
        }
      ],
      "name": "getUserParticipationAmount",
      "outputs": [
        {
          "internalType": "uint256",
          "name": "",
          "type": "uint256"
        }
      ],
      "stateMutability": "view",
      "type": "function"
    },
    {
      "inputs": [
        {
          "internalType": "address",
          "name": "user",
          "type": "address"
        }
      ],
      "name": "getUserVotes",
      "outputs": [
        {
          "internalType": "uint256",
          "name": "",
          "type": "uint256"
        }
      ],
      "stateMutability": "view",
      "type": "function"
    },
    {
      "inputs": [
        {
          "internalType": "address",
          "name": "owner",
          "type": "address"
        },
        {
          "internalType": "address",
          "name": "operator",
          "type": "address"
        }
      ],
      "name": "isApprovedForAll",
      "outputs": [
        {
          "internalType": "bool",
          "name": "",
          "type": "bool"
        }
      ],
      "stateMutability": "view",
      "type": "function"
    },
    {
      "inputs": [
        {
          "internalType": "address",
          "name": "to",
          "type": "address"
        }
      ],
      "name": "issueToken",
      "outputs": [
        {
          "internalType": "uint256",
          "name": "",
          "type": "uint256"
        }
      ],
      "stateMutability": "nonpayable",
      "type": "function"
    },
    {
      "inputs": [],
      "name": "name",
      "outputs": [
        {
          "internalType": "string",
          "name": "",
          "type": "string"
        }
      ],
      "stateMutability": "view",
      "type": "function"
    },
    {
      "inputs": [],
      "name": "owner",
      "outputs": [
        {
          "internalType": "address",
          "name": "",
          "type": "address"
        }
      ],
      "stateMutability": "view",
      "type": "function"
    },
    {
      "inputs": [
        {
          "internalType": "uint256",
          "name": "tokenId",
          "type": "uint256"
        }
      ],
      "name": "ownerOf",
      "outputs": [
        {
          "internalType": "address",
          "name": "",
          "type": "address"
        }
      ],
      "stateMutability": "view",
      "type": "function"
    },
    {
      "inputs": [
        {
          "internalType": "address",
          "name": "from",
          "type": "address"
        },
        {
          "internalType": "address",
          "name": "to",
          "type": "address"
        },
        {
          "internalType": "uint256",
          "name": "tokenId",
          "type": "uint256"
        }
      ],
      "name": "safeTransferFrom",
      "outputs": [],
      "stateMutability": "nonpayable",
      "type": "function"
    },
    {
      "inputs": [
        {
          "internalType": "address",
          "name": "from",
          "type": "address"
        },
        {
          "internalType": "address",
          "name": "to",
          "type": "address"
        },
        {
          "internalType": "uint256",
          "name": "tokenId",
          "type": "uint256"
        },
        {
          "internalType": "bytes",
          "name": "data",
          "type": "bytes"
        }
      ],
      "name": "safeTransferFrom",
      "outputs": [],
      "stateMutability": "nonpayable",
      "type": "function"
    },
    {
      "inputs": [
        {
          "internalType": "address",
          "name": "operator",
          "type": "address"
        },
        {
          "internalType": "bool",
          "name": "approved",
          "type": "bool"
        }
      ],
      "name": "setApprovalForAll",
      "outputs": [],
      "stateMutability": "nonpayable",
      "type": "function"
    },
    {
      "inputs": [
        {
          "internalType": "bytes4",
          "name": "interfaceId",
          "type": "bytes4"
        }
      ],
      "name": "supportsInterface",
      "outputs": [
        {
          "internalType": "bool",
          "name": "",
          "type": "bool"
        }
      ],
      "stateMutability": "view",
      "type": "function"
    },
    {
      "inputs": [],
      "name": "symbol",
      "outputs": [
        {
          "internalType": "string",
          "name": "",
          "type": "string"
        }
      ],
      "stateMutability": "view",
      "type": "function"
    },
    {
      "inputs": [
        {
          "internalType": "uint256",
          "name": "tokenId",
          "type": "uint256"
        }
      ],
      "name": "tokenURI",
      "outputs": [
        {
          "internalType": "string",
          "name": "",
          "type": "string"
        }
      ],
      "stateMutability": "view",
      "type": "function"
    },
    {
      "inputs": [
        {
          "internalType": "address",
          "name": "from",
          "type": "address"
        },
        {
          "internalType": "address",
          "name": "to",
          "type": "address"
        },
        {
          "internalType": "uint256",
          "name": "tokenId",
          "type": "uint256"
        }
      ],
      "name": "transferFrom",
      "outputs": [],
      "stateMutability": "nonpayable",
      "type": "function"
    },
    {
      "inputs": [
        {
          "internalType": "address",
          "name": "user",
          "type": "address"
        },
        {
          "internalType": "uint256",
          "name": "newVotes",
          "type": "uint256"
        },
        {
          "internalType": "uint256",
          "name": "newParticipationAmount",
          "type": "uint256"
        }
      ],
      "name": "updateUser",
      "outputs": [],
      "stateMutability": "nonpayable",
      "type": "function"
    }
  ],
  "bytecode": "0x608060405260006006553480156200001657600080fd5b506040518060400160405280600d81526020017f4d656d626572736869704e4654000000000000000000000000000000000000008152506040518060400160405280600481526020017f4d4e46540000000000000000000000000000000000000000000000000000000081525081600090816200009491906200036a565b508060019081620000a691906200036a565b50505033600760006101000a81548173ffffffffffffffffffffffffffffffffffffffff021916908373ffffffffffffffffffffffffffffffffffffffff16021790555062000451565b600081519050919050565b7f4e487b7100000000000000000000000000000000000000000000000000000000600052604160045260246000fd5b7f4e487b7100000000000000000000000000000000000000000000000000000000600052602260045260246000fd5b600060028204905060018216806200017257607f821691505b6020821081036200018857620001876200012a565b5b50919050565b60008190508160005260206000209050919050565b60006020601f8301049050919050565b600082821b905092915050565b600060088302620001f27fffffffffffffffffffffffffffffffffffffffffffffffffffffffffffffffff82620001b3565b620001fe8683620001b3565b95508019841693508086168417925050509392505050565b6000819050919050565b6000819050919050565b60006200024b620002456200023f8462000216565b62000220565b62000216565b9050919050565b6000819050919050565b62000267836200022a565b6200027f620002768262000252565b848454620001c0565b825550505050565b600090565b6200029662000287565b620002a38184846200025c565b505050565b5b81811015620002cb57620002bf6000826200028c565b600181019050620002a9565b5050565b601f8211156200031a57620002e4816200018e565b620002ef84620001a3565b81016020851015620002ff578190505b620003176200030e85620001a3565b830182620002a8565b50505b505050565b600082821c905092915050565b60006200033f600019846008026200031f565b1980831691505092915050565b60006200035a83836200032c565b9150826002028217905092915050565b6200037582620000f0565b67ffffffffffffffff811115620003915762000390620000fb565b5b6200039d825462000159565b620003aa828285620002cf565b600060209050601f831160018114620003e25760008415620003cd578287015190505b620003d985826200034c565b86555062000449565b601f198416620003f2866200018e565b60005b828110156200041c57848901518255600182019150602085019450602081019050620003f5565b868310156200043c578489015162000438601f8916826200032c565b8355505b6001600288020188555050505b505050505050565b61268f80620004616000396000f3fe608060405234801561001057600080fd5b50600436106101165760003560e01c806389034082116100a2578063a22cb46511610071578063a22cb46514610305578063b88d4fde14610321578063c87b56dd1461033d578063dc02e1361461036d578063e985e9c51461039d57610116565b806389034082146102695780638da5cb5b14610299578063950c7822146102b757806395d89b41146102e757610116565b8063095ea7b3116100e9578063095ea7b3146101b557806323b872dd146101d157806342842e0e146101ed5780636352211e1461020957806370a082311461023957610116565b806301ffc9a71461011b57806305ca4ba61461014b57806306fdde0314610167578063081812fc14610185575b600080fd5b61013560048036038101906101309190611c48565b6103cd565b6040516101429190611c90565b60405180910390f35b61016560048036038101906101609190611d3f565b6104af565b005b61016f61060b565b60405161017c9190611e22565b60405180910390f35b61019f600480360381019061019a9190611e44565b61069d565b6040516101ac9190611e80565b60405180910390f35b6101cf60048036038101906101ca9190611e9b565b6106b9565b005b6101eb60048036038101906101e69190611edb565b6106cf565b005b61020760048036038101906102029190611edb565b6107d1565b005b610223600480360381019061021e9190611e44565b6107f1565b6040516102309190611e80565b60405180910390f35b610253600480360381019061024e9190611f2e565b610803565b6040516102609190611f6a565b60405180910390f35b610283600480360381019061027e9190611f2e565b6108bd565b6040516102909190611f6a565b60405180910390f35b6102a1610afd565b6040516102ae9190611e80565b60405180910390f35b6102d160048036038101906102cc9190611f2e565b610b23565b6040516102de9190611f6a565b60405180910390f35b6102ef610bfe565b6040516102fc9190611e22565b60405180910390f35b61031f600480360381019061031a9190611fb1565b610c90565b005b61033b60048036038101906103369190612126565b610ca6565b005b61035760048036038101906103529190611e44565b610cc3565b6040516103649190611e22565b60405180910390f35b61038760048036038101906103829190611f2e565b610d2c565b6040516103949190611f6a565b60405180910390f35b6103b760048036038101906103b291906121a9565b610e07565b6040516103c49190611c90565b60405180910390f35b60007f80ac58cd000000000000000000000000000000000000000000000000000000007bffffffffffffffffffffffffffffffffffffffffffffffffffffffff1916827bffffffffffffffffffffffffffffffffffffffffffffffffffffffff1916148061049857507f5b5e139f000000000000000000000000000000000000000000000000000000007bffffffffffffffffffffffffffffffffffffffffffffffffffffffff1916827bffffffffffffffffffffffffffffffffffffffffffffffffffffffff1916145b806104a857506104a782610e9b565b5b9050919050565b82600960008273ffffffffffffffffffffffffffffffffffffffff1673ffffffffffffffffffffffffffffffffffffffff16815260200190815260200160002060009054906101000a900460ff1661053c576040517f08c379a00000000000000000000000000000000000000000000000000000000081526004016105339061225b565b60405180910390fd5b82600860008673ffffffffffffffffffffffffffffffffffffffff1673ffffffffffffffffffffffffffffffffffffffff1681526020019081526020016000206000018190555081600860008673ffffffffffffffffffffffffffffffffffffffff1673ffffffffffffffffffffffffffffffffffffffff168152602001908152602001600020600101819055507f7a201ac8e3999f4496e061aec5655bfa08ad493c82d3cc0bf82cd0333e44cb9d8484846040516105fd9392919061227b565b60405180910390a150505050565b60606000805461061a906122e1565b80601f0160208091040260200160405190810160405280929190818152602001828054610646906122e1565b80156106935780601f1061066857610100808354040283529160200191610693565b820191906000526020600020905b81548152906001019060200180831161067657829003601f168201915b5050505050905090565b60006106a882610f05565b506106b282610f8d565b9050919050565b6106cb82826106c6610fca565b610fd2565b5050565b600073ffffffffffffffffffffffffffffffffffffffff168273ffffffffffffffffffffffffffffffffffffffff16036107415760006040517f64a0ae920000000000000000000000000000000000000000000000000000000081526004016107389190611e80565b60405180910390fd5b60006107558383610750610fca565b610fe4565b90508373ffffffffffffffffffffffffffffffffffffffff168173ffffffffffffffffffffffffffffffffffffffff16146107cb578382826040517f64283d7b0000000000000000000000000000000000000000000000000000000081526004016107c293929190612312565b60405180910390fd5b50505050565b6107ec83838360405180602001604052806000815250610ca6565b505050565b60006107fc82610f05565b9050919050565b60008073ffffffffffffffffffffffffffffffffffffffff168273ffffffffffffffffffffffffffffffffffffffff16036108765760006040517f89c62b6400000000000000000000000000000000000000000000000000000000815260040161086d9190611e80565b60405180910390fd5b600360008373ffffffffffffffffffffffffffffffffffffffff1673ffffffffffffffffffffffffffffffffffffffff168152602001908152602001600020549050919050565b6000600760009054906101000a900473ffffffffffffffffffffffffffffffffffffffff1673ffffffffffffffffffffffffffffffffffffffff163373ffffffffffffffffffffffffffffffffffffffff161461094f576040517f08c379a0000000000000000000000000000000000000000000000000000000008152600401610946906123bb565b60405180910390fd5b600660008154809291906109629061240a565b91905055506000600654905061097883826111fe565b6001600960008573ffffffffffffffffffffffffffffffffffffffff1673ffffffffffffffffffffffffffffffffffffffff16815260200190815260200160002060006101000a81548160ff021916908315150217905550600860008473ffffffffffffffffffffffffffffffffffffffff1673ffffffffffffffffffffffffffffffffffffffff16815260200190815260200160002060020160009054906101000a900460ff16610abb576040518060600160405280600081526020016000815260200160011515815250600860008573ffffffffffffffffffffffffffffffffffffffff1673ffffffffffffffffffffffffffffffffffffffff168152602001908152602001600020600082015181600001556020820151816001015560408201518160020160006101000a81548160ff0219169083151502179055509050505b7fcd04e188e9e3af769a0f103b290535c8758dbdd6e8b2d7f33aaaf2dc38e4b1518382604051610aec929190612452565b60405180910390a180915050919050565b600760009054906101000a900473ffffffffffffffffffffffffffffffffffffffff1681565b6000600860008373ffffffffffffffffffffffffffffffffffffffff1673ffffffffffffffffffffffffffffffffffffffff16815260200190815260200160002060020160009054906101000a900460ff16610bb4576040517f08c379a0000000000000000000000000000000000000000000000000000000008152600401610bab906124c7565b60405180910390fd5b600860008373ffffffffffffffffffffffffffffffffffffffff1673ffffffffffffffffffffffffffffffffffffffff168152602001908152602001600020600001549050919050565b606060018054610c0d906122e1565b80601f0160208091040260200160405190810160405280929190818152602001828054610c39906122e1565b8015610c865780601f10610c5b57610100808354040283529160200191610c86565b820191906000526020600020905b815481529060010190602001808311610c6957829003601f168201915b5050505050905090565b610ca2610c9b610fca565b83836112f7565b5050565b610cb18484846106cf565b610cbd84848484611466565b50505050565b6060610cce82610f05565b506000610cd961161d565b90506000815111610cf95760405180602001604052806000815250610d24565b80610d0384611634565b604051602001610d14929190612523565b6040516020818303038152906040525b915050919050565b6000600860008373ffffffffffffffffffffffffffffffffffffffff1673ffffffffffffffffffffffffffffffffffffffff16815260200190815260200160002060020160009054906101000a900460ff16610dbd576040517f08c379a0000000000000000000000000000000000000000000000000000000008152600401610db4906124c7565b60405180910390fd5b600860008373ffffffffffffffffffffffffffffffffffffffff1673ffffffffffffffffffffffffffffffffffffffff168152602001908152602001600020600101549050919050565b6000600560008473ffffffffffffffffffffffffffffffffffffffff1673ffffffffffffffffffffffffffffffffffffffff16815260200190815260200160002060008373ffffffffffffffffffffffffffffffffffffffff1673ffffffffffffffffffffffffffffffffffffffff16815260200190815260200160002060009054906101000a900460ff16905092915050565b60007f01ffc9a7000000000000000000000000000000000000000000000000000000007bffffffffffffffffffffffffffffffffffffffffffffffffffffffff1916827bffffffffffffffffffffffffffffffffffffffffffffffffffffffff1916149050919050565b600080610f1183611702565b9050600073ffffffffffffffffffffffffffffffffffffffff168173ffffffffffffffffffffffffffffffffffffffff1603610f8457826040517f7e273289000000000000000000000000000000000000000000000000000000008152600401610f7b9190611f6a565b60405180910390fd5b80915050919050565b60006004600083815260200190815260200160002060009054906101000a900473ffffffffffffffffffffffffffffffffffffffff169050919050565b600033905090565b610fdf838383600161173f565b505050565b600080610ff084611702565b9050600073ffffffffffffffffffffffffffffffffffffffff168373ffffffffffffffffffffffffffffffffffffffff161461103257611031818486611904565b5b600073ffffffffffffffffffffffffffffffffffffffff168173ffffffffffffffffffffffffffffffffffffffff16146110c35761107460008560008061173f565b6001600360008373ffffffffffffffffffffffffffffffffffffffff1673ffffffffffffffffffffffffffffffffffffffff168152602001908152602001600020600082825403925050819055505b600073ffffffffffffffffffffffffffffffffffffffff168573ffffffffffffffffffffffffffffffffffffffff1614611146576001600360008773ffffffffffffffffffffffffffffffffffffffff1673ffffffffffffffffffffffffffffffffffffffff168152602001908152602001600020600082825401925050819055505b846002600086815260200190815260200160002060006101000a81548173ffffffffffffffffffffffffffffffffffffffff021916908373ffffffffffffffffffffffffffffffffffffffff160217905550838573ffffffffffffffffffffffffffffffffffffffff168273ffffffffffffffffffffffffffffffffffffffff167fddf252ad1be2c89b69c2b068fc378daa952ba7f163c4a11628f55a4df523b3ef60405160405180910390a4809150509392505050565b600073ffffffffffffffffffffffffffffffffffffffff168273ffffffffffffffffffffffffffffffffffffffff16036112705760006040517f64a0ae920000000000000000000000000000000000000000000000000000000081526004016112679190611e80565b60405180910390fd5b600061127e83836000610fe4565b9050600073ffffffffffffffffffffffffffffffffffffffff168173ffffffffffffffffffffffffffffffffffffffff16146112f25760006040517f73c6ac6e0000000000000000000000000000000000000000000000000000000081526004016112e99190611e80565b60405180910390fd5b505050565b600073ffffffffffffffffffffffffffffffffffffffff168273ffffffffffffffffffffffffffffffffffffffff160361136857816040517f5b08ba1800000000000000000000000000000000000000000000000000000000815260040161135f9190611e80565b60405180910390fd5b80600560008573ffffffffffffffffffffffffffffffffffffffff1673ffffffffffffffffffffffffffffffffffffffff16815260200190815260200160002060008473ffffffffffffffffffffffffffffffffffffffff1673ffffffffffffffffffffffffffffffffffffffff16815260200190815260200160002060006101000a81548160ff0219169083151502179055508173ffffffffffffffffffffffffffffffffffffffff168373ffffffffffffffffffffffffffffffffffffffff167f17307eab39ab6107e8899845ad3d59bd9653f200f220920489ca2b5937696c31836040516114599190611c90565b60405180910390a3505050565b60008373ffffffffffffffffffffffffffffffffffffffff163b1115611617578273ffffffffffffffffffffffffffffffffffffffff1663150b7a026114aa610fca565b8685856040518563ffffffff1660e01b81526004016114cc949392919061259c565b6020604051808303816000875af192505050801561150857506040513d601f19601f8201168201806040525081019061150591906125fd565b60015b61158c573d8060008114611538576040519150601f19603f3d011682016040523d82523d6000602084013e61153d565b606091505b50600081510361158457836040517f64a0ae9200000000000000000000000000000000000000000000000000000000815260040161157b9190611e80565b60405180910390fd5b805181602001fd5b63150b7a0260e01b7bffffffffffffffffffffffffffffffffffffffffffffffffffffffff1916817bffffffffffffffffffffffffffffffffffffffffffffffffffffffff19161461161557836040517f64a0ae9200000000000000000000000000000000000000000000000000000000815260040161160c9190611e80565b60405180910390fd5b505b50505050565b606060405180602001604052806000815250905090565b606060006001611643846119c8565b01905060008167ffffffffffffffff81111561166257611661611ffb565b5b6040519080825280601f01601f1916602001820160405280156116945781602001600182028036833780820191505090505b509050600082602001820190505b6001156116f7578080600190039150507f3031323334353637383961626364656600000000000000000000000000000000600a86061a8153600a85816116eb576116ea61262a565b5b049450600085036116a2575b819350505050919050565b60006002600083815260200190815260200160002060009054906101000a900473ffffffffffffffffffffffffffffffffffffffff169050919050565b80806117785750600073ffffffffffffffffffffffffffffffffffffffff168273ffffffffffffffffffffffffffffffffffffffff1614155b156118ac57600061178884610f05565b9050600073ffffffffffffffffffffffffffffffffffffffff168373ffffffffffffffffffffffffffffffffffffffff16141580156117f357508273ffffffffffffffffffffffffffffffffffffffff168173ffffffffffffffffffffffffffffffffffffffff1614155b801561180657506118048184610e07565b155b1561184857826040517fa9fbf51f00000000000000000000000000000000000000000000000000000000815260040161183f9190611e80565b60405180910390fd5b81156118aa57838573ffffffffffffffffffffffffffffffffffffffff168273ffffffffffffffffffffffffffffffffffffffff167f8c5be1e5ebec7d5bd14f71427d1e84f3dd0314c0f7b2291e5b200ac8c7c3b92560405160405180910390a45b505b836004600085815260200190815260200160002060006101000a81548173ffffffffffffffffffffffffffffffffffffffff021916908373ffffffffffffffffffffffffffffffffffffffff16021790555050505050565b61190f838383611b1b565b6119c357600073ffffffffffffffffffffffffffffffffffffffff168373ffffffffffffffffffffffffffffffffffffffff160361198457806040517f7e27328900000000000000000000000000000000000000000000000000000000815260040161197b9190611f6a565b60405180910390fd5b81816040517f177e802f0000000000000000000000000000000000000000000000000000000081526004016119ba929190612452565b60405180910390fd5b505050565b600080600090507a184f03e93ff9f4daa797ed6e38ed64bf6a1f0100000000000000008310611a26577a184f03e93ff9f4daa797ed6e38ed64bf6a1f0100000000000000008381611a1c57611a1b61262a565b5b0492506040810190505b6d04ee2d6d415b85acef81000000008310611a63576d04ee2d6d415b85acef81000000008381611a5957611a5861262a565b5b0492506020810190505b662386f26fc100008310611a9257662386f26fc100008381611a8857611a8761262a565b5b0492506010810190505b6305f5e1008310611abb576305f5e1008381611ab157611ab061262a565b5b0492506008810190505b6127108310611ae0576127108381611ad657611ad561262a565b5b0492506004810190505b60648310611b035760648381611af957611af861262a565b5b0492506002810190505b600a8310611b12576001810190505b80915050919050565b60008073ffffffffffffffffffffffffffffffffffffffff168373ffffffffffffffffffffffffffffffffffffffff1614158015611bd357508273ffffffffffffffffffffffffffffffffffffffff168473ffffffffffffffffffffffffffffffffffffffff161480611b945750611b938484610e07565b5b80611bd257508273ffffffffffffffffffffffffffffffffffffffff16611bba83610f8d565b73ffffffffffffffffffffffffffffffffffffffff16145b5b90509392505050565b6000604051905090565b600080fd5b600080fd5b60007fffffffff0000000000000000000000000000000000000000000000000000000082169050919050565b611c2581611bf0565b8114611c3057600080fd5b50565b600081359050611c4281611c1c565b92915050565b600060208284031215611c5e57611c5d611be6565b5b6000611c6c84828501611c33565b91505092915050565b60008115159050919050565b611c8a81611c75565b82525050565b6000602082019050611ca56000830184611c81565b92915050565b600073ffffffffffffffffffffffffffffffffffffffff82169050919050565b6000611cd682611cab565b9050919050565b611ce681611ccb565b8114611cf157600080fd5b50565b600081359050611d0381611cdd565b92915050565b6000819050919050565b611d1c81611d09565b8114611d2757600080fd5b50565b600081359050611d3981611d13565b92915050565b600080600060608486031215611d5857611d57611be6565b5b6000611d6686828701611cf4565b9350506020611d7786828701611d2a565b9250506040611d8886828701611d2a565b9150509250925092565b600081519050919050565b600082825260208201905092915050565b60005b83811015611dcc578082015181840152602081019050611db1565b60008484015250505050565b6000601f19601f8301169050919050565b6000611df482611d92565b611dfe8185611d9d565b9350611e0e818560208601611dae565b611e1781611dd8565b840191505092915050565b60006020820190508181036000830152611e3c8184611de9565b905092915050565b600060208284031215611e5a57611e59611be6565b5b6000611e6884828501611d2a565b91505092915050565b611e7a81611ccb565b82525050565b6000602082019050611e956000830184611e71565b92915050565b60008060408385031215611eb257611eb1611be6565b5b6000611ec085828601611cf4565b9250506020611ed185828601611d2a565b9150509250929050565b600080600060608486031215611ef457611ef3611be6565b5b6000611f0286828701611cf4565b9350506020611f1386828701611cf4565b9250506040611f2486828701611d2a565b9150509250925092565b600060208284031215611f4457611f43611be6565b5b6000611f5284828501611cf4565b91505092915050565b611f6481611d09565b82525050565b6000602082019050611f7f6000830184611f5b565b92915050565b611f8e81611c75565b8114611f9957600080fd5b50565b600081359050611fab81611f85565b92915050565b60008060408385031215611fc857611fc7611be6565b5b6000611fd685828601611cf4565b9250506020611fe785828601611f9c565b9150509250929050565b600080fd5b600080fd5b7f4e487b7100000000000000000000000000000000000000000000000000000000600052604160045260246000fd5b61203382611dd8565b810181811067ffffffffffffffff8211171561205257612051611ffb565b5b80604052505050565b6000612065611bdc565b9050612071828261202a565b919050565b600067ffffffffffffffff82111561209157612090611ffb565b5b61209a82611dd8565b9050602081019050919050565b82818337600083830152505050565b60006120c96120c484612076565b61205b565b9050828152602081018484840111156120e5576120e4611ff6565b5b6120f08482856120a7565b509392505050565b600082601f83011261210d5761210c611ff1565b5b813561211d8482602086016120b6565b91505092915050565b600080600080608085870312156121405761213f611be6565b5b600061214e87828801611cf4565b945050602061215f87828801611cf4565b935050604061217087828801611d2a565b925050606085013567ffffffffffffffff81111561219157612190611beb565b5b61219d878288016120f8565b91505092959194509250565b600080604083850312156121c0576121bf611be6565b5b60006121ce85828601611cf4565b92505060206121df85828601611cf4565b9150509250929050565b7f55736572206d757374206f776e206120746f6b656e20746f207570646174652060008201527f696e666f726d6174696f6e000000000000000000000000000000000000000000602082015250565b6000612245602b83611d9d565b9150612250826121e9565b604082019050919050565b6000602082019050818103600083015261227481612238565b9050919050565b60006060820190506122906000830186611e71565b61229d6020830185611f5b565b6122aa6040830184611f5b565b949350505050565b7f4e487b7100000000000000000000000000000000000000000000000000000000600052602260045260246000fd5b600060028204905060018216806122f957607f821691505b60208210810361230c5761230b6122b2565b5b50919050565b60006060820190506123276000830186611e71565b6123346020830185611f5b565b6123416040830184611e71565b949350505050565b7f596f7520646f206e6f742068617665207468652072657175697265642070726960008201527f76696c6567657320746f20646f20746869730000000000000000000000000000602082015250565b60006123a5603283611d9d565b91506123b082612349565b604082019050919050565b600060208201905081810360008301526123d481612398565b9050919050565b7f4e487b7100000000000000000000000000000000000000000000000000000000600052601160045260246000fd5b600061241582611d09565b91507fffffffffffffffffffffffffffffffffffffffffffffffffffffffffffffffff8203612447576124466123db565b5b600182019050919050565b60006040820190506124676000830185611e71565b6124746020830184611f5b565b9392505050565b7f5573657220646f6573206e6f7420657869737400000000000000000000000000600082015250565b60006124b1601383611d9d565b91506124bc8261247b565b602082019050919050565b600060208201905081810360008301526124e0816124a4565b9050919050565b600081905092915050565b60006124fd82611d92565b61250781856124e7565b9350612517818560208601611dae565b80840191505092915050565b600061252f82856124f2565b915061253b82846124f2565b91508190509392505050565b600081519050919050565b600082825260208201905092915050565b600061256e82612547565b6125788185612552565b9350612588818560208601611dae565b61259181611dd8565b840191505092915050565b60006080820190506125b16000830187611e71565b6125be6020830186611e71565b6125cb6040830185611f5b565b81810360608301526125dd8184612563565b905095945050505050565b6000815190506125f781611c1c565b92915050565b60006020828403121561261357612612611be6565b5b6000612621848285016125e8565b91505092915050565b7f4e487b7100000000000000000000000000000000000000000000000000000000600052601260045260246000fdfea2646970667358221220bd4bbed36c2f3de4e4039c68997c82f43b6da8111828402f2d4a2741d2c3b6a364736f6c63430008140033",
  "linkReferences": {},
  "deployedLinkReferences": {}
}