{
  "_format": "hh-sol-artifact-1",
  "contractName": "MembershipNFT",
  "sourceName": "contracts/DAO/MembershipNFT.sol",
  "abi": [
    {
      "inputs": [],
      "stateMutability": "nonpayable",
      "type": "constructor"
    },
    {
      "inputs": [
        {
          "internalType": "address",
          "name": "sender",
          "type": "address"
        },
        {
          "internalType": "uint256",
          "name": "tokenId",
          "type": "uint256"
        },
        {
          "internalType": "address",
          "name": "owner",
          "type": "address"
        }
      ],
      "name": "ERC721IncorrectOwner",
      "type": "error"
    },
    {
      "inputs": [
        {
          "internalType": "address",
          "name": "operator",
          "type": "address"
        },
        {
          "internalType": "uint256",
          "name": "tokenId",
          "type": "uint256"
        }
      ],
      "name": "ERC721InsufficientApproval",
      "type": "error"
    },
    {
      "inputs": [
        {
          "internalType": "address",
          "name": "approver",
          "type": "address"
        }
      ],
      "name": "ERC721InvalidApprover",
      "type": "error"
    },
    {
      "inputs": [
        {
          "internalType": "address",
          "name": "operator",
          "type": "address"
        }
      ],
      "name": "ERC721InvalidOperator",
      "type": "error"
    },
    {
      "inputs": [
        {
          "internalType": "address",
          "name": "owner",
          "type": "address"
        }
      ],
      "name": "ERC721InvalidOwner",
      "type": "error"
    },
    {
      "inputs": [
        {
          "internalType": "address",
          "name": "receiver",
          "type": "address"
        }
      ],
      "name": "ERC721InvalidReceiver",
      "type": "error"
    },
    {
      "inputs": [
        {
          "internalType": "address",
          "name": "sender",
          "type": "address"
        }
      ],
      "name": "ERC721InvalidSender",
      "type": "error"
    },
    {
      "inputs": [
        {
          "internalType": "uint256",
          "name": "tokenId",
          "type": "uint256"
        }
      ],
      "name": "ERC721NonexistentToken",
      "type": "error"
    },
    {
      "anonymous": false,
      "inputs": [
        {
          "indexed": true,
          "internalType": "address",
          "name": "owner",
          "type": "address"
        },
        {
          "indexed": true,
          "internalType": "address",
          "name": "approved",
          "type": "address"
        },
        {
          "indexed": true,
          "internalType": "uint256",
          "name": "tokenId",
          "type": "uint256"
        }
      ],
      "name": "Approval",
      "type": "event"
    },
    {
      "anonymous": false,
      "inputs": [
        {
          "indexed": true,
          "internalType": "address",
          "name": "owner",
          "type": "address"
        },
        {
          "indexed": true,
          "internalType": "address",
          "name": "operator",
          "type": "address"
        },
        {
          "indexed": false,
          "internalType": "bool",
          "name": "approved",
          "type": "bool"
        }
      ],
      "name": "ApprovalForAll",
      "type": "event"
    },
    {
      "anonymous": false,
      "inputs": [
        {
          "indexed": true,
          "internalType": "address",
          "name": "from",
          "type": "address"
        },
        {
          "indexed": true,
          "internalType": "address",
          "name": "to",
          "type": "address"
        },
        {
          "indexed": true,
          "internalType": "uint256",
          "name": "tokenId",
          "type": "uint256"
        }
      ],
      "name": "Transfer",
      "type": "event"
    },
    {
      "inputs": [
        {
          "internalType": "address",
          "name": "to",
          "type": "address"
        },
        {
          "internalType": "uint256",
          "name": "tokenId",
          "type": "uint256"
        }
      ],
      "name": "approve",
      "outputs": [],
      "stateMutability": "nonpayable",
      "type": "function"
    },
    {
      "inputs": [
        {
          "internalType": "address",
          "name": "owner",
          "type": "address"
        }
      ],
      "name": "balanceOf",
      "outputs": [
        {
          "internalType": "uint256",
          "name": "",
          "type": "uint256"
        }
      ],
      "stateMutability": "view",
      "type": "function"
    },
    {
      "inputs": [
        {
          "internalType": "uint256",
          "name": "tokenId",
          "type": "uint256"
        }
      ],
      "name": "getApproved",
      "outputs": [
        {
          "internalType": "address",
          "name": "",
          "type": "address"
        }
      ],
      "stateMutability": "view",
      "type": "function"
    },
    {
      "inputs": [
        {
          "internalType": "address",
          "name": "owner",
          "type": "address"
        },
        {
          "internalType": "address",
          "name": "operator",
          "type": "address"
        }
      ],
      "name": "isApprovedForAll",
      "outputs": [
        {
          "internalType": "bool",
          "name": "",
          "type": "bool"
        }
      ],
      "stateMutability": "view",
      "type": "function"
    },
    {
      "inputs": [
        {
          "internalType": "address",
          "name": "to",
          "type": "address"
        }
      ],
      "name": "issueToken",
      "outputs": [
        {
          "internalType": "uint256",
          "name": "",
          "type": "uint256"
        }
      ],
      "stateMutability": "nonpayable",
      "type": "function"
    },
    {
      "inputs": [],
      "name": "name",
      "outputs": [
        {
          "internalType": "string",
          "name": "",
          "type": "string"
        }
      ],
      "stateMutability": "view",
      "type": "function"
    },
    {
      "inputs": [
        {
          "internalType": "uint256",
          "name": "tokenId",
          "type": "uint256"
        }
      ],
      "name": "ownerOf",
      "outputs": [
        {
          "internalType": "address",
          "name": "",
          "type": "address"
        }
      ],
      "stateMutability": "view",
      "type": "function"
    },
    {
      "inputs": [
        {
          "internalType": "address",
          "name": "from",
          "type": "address"
        },
        {
          "internalType": "address",
          "name": "to",
          "type": "address"
        },
        {
          "internalType": "uint256",
          "name": "tokenId",
          "type": "uint256"
        }
      ],
      "name": "safeTransferFrom",
      "outputs": [],
      "stateMutability": "nonpayable",
      "type": "function"
    },
    {
      "inputs": [
        {
          "internalType": "address",
          "name": "from",
          "type": "address"
        },
        {
          "internalType": "address",
          "name": "to",
          "type": "address"
        },
        {
          "internalType": "uint256",
          "name": "tokenId",
          "type": "uint256"
        },
        {
          "internalType": "bytes",
          "name": "data",
          "type": "bytes"
        }
      ],
      "name": "safeTransferFrom",
      "outputs": [],
      "stateMutability": "nonpayable",
      "type": "function"
    },
    {
      "inputs": [
        {
          "internalType": "address",
          "name": "operator",
          "type": "address"
        },
        {
          "internalType": "bool",
          "name": "approved",
          "type": "bool"
        }
      ],
      "name": "setApprovalForAll",
      "outputs": [],
      "stateMutability": "nonpayable",
      "type": "function"
    },
    {
      "inputs": [
        {
          "internalType": "bytes4",
          "name": "interfaceId",
          "type": "bytes4"
        }
      ],
      "name": "supportsInterface",
      "outputs": [
        {
          "internalType": "bool",
          "name": "",
          "type": "bool"
        }
      ],
      "stateMutability": "view",
      "type": "function"
    },
    {
      "inputs": [],
      "name": "symbol",
      "outputs": [
        {
          "internalType": "string",
          "name": "",
          "type": "string"
        }
      ],
      "stateMutability": "view",
      "type": "function"
    },
    {
      "inputs": [
        {
          "internalType": "uint256",
          "name": "tokenId",
          "type": "uint256"
        }
      ],
      "name": "tokenURI",
      "outputs": [
        {
          "internalType": "string",
          "name": "",
          "type": "string"
        }
      ],
      "stateMutability": "view",
      "type": "function"
    },
    {
      "inputs": [
        {
          "internalType": "address",
          "name": "from",
          "type": "address"
        },
        {
          "internalType": "address",
          "name": "to",
          "type": "address"
        },
        {
          "internalType": "uint256",
          "name": "tokenId",
          "type": "uint256"
        }
      ],
      "name": "transferFrom",
      "outputs": [],
      "stateMutability": "nonpayable",
      "type": "function"
    }
  ],
  "bytecode": "0x608060405260006006553480156200001657600080fd5b506040518060400160405280600d81526020017f4d656d626572736869704e4654000000000000000000000000000000000000008152506040518060400160405280600481526020017f4d4e465400000000000000000000000000000000000000000000000000000000815250816000908162000094919062000329565b508060019081620000a6919062000329565b50505062000410565b600081519050919050565b7f4e487b7100000000000000000000000000000000000000000000000000000000600052604160045260246000fd5b7f4e487b7100000000000000000000000000000000000000000000000000000000600052602260045260246000fd5b600060028204905060018216806200013157607f821691505b602082108103620001475762000146620000e9565b5b50919050565b60008190508160005260206000209050919050565b60006020601f8301049050919050565b600082821b905092915050565b600060088302620001b17fffffffffffffffffffffffffffffffffffffffffffffffffffffffffffffffff8262000172565b620001bd868362000172565b95508019841693508086168417925050509392505050565b6000819050919050565b6000819050919050565b60006200020a62000204620001fe84620001d5565b620001df565b620001d5565b9050919050565b6000819050919050565b6200022683620001e9565b6200023e620002358262000211565b8484546200017f565b825550505050565b600090565b6200025562000246565b620002628184846200021b565b505050565b5b818110156200028a576200027e6000826200024b565b60018101905062000268565b5050565b601f821115620002d957620002a3816200014d565b620002ae8462000162565b81016020851015620002be578190505b620002d6620002cd8562000162565b83018262000267565b50505b505050565b600082821c905092915050565b6000620002fe60001984600802620002de565b1980831691505092915050565b6000620003198383620002eb565b9150826002028217905092915050565b6200033482620000af565b67ffffffffffffffff81111562000350576200034f620000ba565b5b6200035c825462000118565b620003698282856200028e565b600060209050601f831160018114620003a157600084156200038c578287015190505b6200039885826200030b565b86555062000408565b601f198416620003b1866200014d565b60005b82811015620003db57848901518255600182019150602085019450602081019050620003b4565b86831015620003fb5784890151620003f7601f891682620002eb565b8355505b6001600288020188555050505b505050505050565b611e6b80620004206000396000f3fe608060405234801561001057600080fd5b50600436106100ea5760003560e01c806370a082311161008c578063a22cb46511610066578063a22cb4651461026f578063b88d4fde1461028b578063c87b56dd146102a7578063e985e9c5146102d7576100ea565b806370a08231146101f1578063890340821461022157806395d89b4114610251576100ea565b8063095ea7b3116100c8578063095ea7b31461016d57806323b872dd1461018957806342842e0e146101a55780636352211e146101c1576100ea565b806301ffc9a7146100ef57806306fdde031461011f578063081812fc1461013d575b600080fd5b6101096004803603810190610104919061163e565b610307565b6040516101169190611686565b60405180910390f35b6101276103e9565b6040516101349190611731565b60405180910390f35b61015760048036038101906101529190611789565b61047b565b60405161016491906117f7565b60405180910390f35b6101876004803603810190610182919061183e565b610497565b005b6101a3600480360381019061019e919061187e565b6104ad565b005b6101bf60048036038101906101ba919061187e565b6105af565b005b6101db60048036038101906101d69190611789565b6105cf565b6040516101e891906117f7565b60405180910390f35b61020b600480360381019061020691906118d1565b6105e1565b604051610218919061190d565b60405180910390f35b61023b600480360381019061023691906118d1565b61069b565b604051610248919061190d565b60405180910390f35b6102596106cf565b6040516102669190611731565b60405180910390f35b61028960048036038101906102849190611954565b610761565b005b6102a560048036038101906102a09190611ac9565b610777565b005b6102c160048036038101906102bc9190611789565b610794565b6040516102ce9190611731565b60405180910390f35b6102f160048036038101906102ec9190611b4c565b6107fd565b6040516102fe9190611686565b60405180910390f35b60007f80ac58cd000000000000000000000000000000000000000000000000000000007bffffffffffffffffffffffffffffffffffffffffffffffffffffffff1916827bffffffffffffffffffffffffffffffffffffffffffffffffffffffff191614806103d257507f5b5e139f000000000000000000000000000000000000000000000000000000007bffffffffffffffffffffffffffffffffffffffffffffffffffffffff1916827bffffffffffffffffffffffffffffffffffffffffffffffffffffffff1916145b806103e257506103e182610891565b5b9050919050565b6060600080546103f890611bbb565b80601f016020809104026020016040519081016040528092919081815260200182805461042490611bbb565b80156104715780601f1061044657610100808354040283529160200191610471565b820191906000526020600020905b81548152906001019060200180831161045457829003601f168201915b5050505050905090565b6000610486826108fb565b5061049082610983565b9050919050565b6104a982826104a46109c0565b6109c8565b5050565b600073ffffffffffffffffffffffffffffffffffffffff168273ffffffffffffffffffffffffffffffffffffffff160361051f5760006040517f64a0ae9200000000000000000000000000000000000000000000000000000000815260040161051691906117f7565b60405180910390fd5b6000610533838361052e6109c0565b6109da565b90508373ffffffffffffffffffffffffffffffffffffffff168173ffffffffffffffffffffffffffffffffffffffff16146105a9578382826040517f64283d7b0000000000000000000000000000000000000000000000000000000081526004016105a093929190611bec565b60405180910390fd5b50505050565b6105ca83838360405180602001604052806000815250610777565b505050565b60006105da826108fb565b9050919050565b60008073ffffffffffffffffffffffffffffffffffffffff168273ffffffffffffffffffffffffffffffffffffffff16036106545760006040517f89c62b6400000000000000000000000000000000000000000000000000000000815260040161064b91906117f7565b60405180910390fd5b600360008373ffffffffffffffffffffffffffffffffffffffff1673ffffffffffffffffffffffffffffffffffffffff168152602001908152602001600020549050919050565b6000600660008154809291906106b090611c52565b9190505550600060065490506106c68382610bf4565b80915050919050565b6060600180546106de90611bbb565b80601f016020809104026020016040519081016040528092919081815260200182805461070a90611bbb565b80156107575780601f1061072c57610100808354040283529160200191610757565b820191906000526020600020905b81548152906001019060200180831161073a57829003601f168201915b5050505050905090565b61077361076c6109c0565b8383610ced565b5050565b6107828484846104ad565b61078e84848484610e5c565b50505050565b606061079f826108fb565b5060006107aa611013565b905060008151116107ca57604051806020016040528060008152506107f5565b806107d48461102a565b6040516020016107e5929190611cd6565b6040516020818303038152906040525b915050919050565b6000600560008473ffffffffffffffffffffffffffffffffffffffff1673ffffffffffffffffffffffffffffffffffffffff16815260200190815260200160002060008373ffffffffffffffffffffffffffffffffffffffff1673ffffffffffffffffffffffffffffffffffffffff16815260200190815260200160002060009054906101000a900460ff16905092915050565b60007f01ffc9a7000000000000000000000000000000000000000000000000000000007bffffffffffffffffffffffffffffffffffffffffffffffffffffffff1916827bffffffffffffffffffffffffffffffffffffffffffffffffffffffff1916149050919050565b600080610907836110f8565b9050600073ffffffffffffffffffffffffffffffffffffffff168173ffffffffffffffffffffffffffffffffffffffff160361097a57826040517f7e273289000000000000000000000000000000000000000000000000000000008152600401610971919061190d565b60405180910390fd5b80915050919050565b60006004600083815260200190815260200160002060009054906101000a900473ffffffffffffffffffffffffffffffffffffffff169050919050565b600033905090565b6109d58383836001611135565b505050565b6000806109e6846110f8565b9050600073ffffffffffffffffffffffffffffffffffffffff168373ffffffffffffffffffffffffffffffffffffffff1614610a2857610a278184866112fa565b5b600073ffffffffffffffffffffffffffffffffffffffff168173ffffffffffffffffffffffffffffffffffffffff1614610ab957610a6a600085600080611135565b6001600360008373ffffffffffffffffffffffffffffffffffffffff1673ffffffffffffffffffffffffffffffffffffffff168152602001908152602001600020600082825403925050819055505b600073ffffffffffffffffffffffffffffffffffffffff168573ffffffffffffffffffffffffffffffffffffffff1614610b3c576001600360008773ffffffffffffffffffffffffffffffffffffffff1673ffffffffffffffffffffffffffffffffffffffff168152602001908152602001600020600082825401925050819055505b846002600086815260200190815260200160002060006101000a81548173ffffffffffffffffffffffffffffffffffffffff021916908373ffffffffffffffffffffffffffffffffffffffff160217905550838573ffffffffffffffffffffffffffffffffffffffff168273ffffffffffffffffffffffffffffffffffffffff167fddf252ad1be2c89b69c2b068fc378daa952ba7f163c4a11628f55a4df523b3ef60405160405180910390a4809150509392505050565b600073ffffffffffffffffffffffffffffffffffffffff168273ffffffffffffffffffffffffffffffffffffffff1603610c665760006040517f64a0ae92000000000000000000000000000000000000000000000000000000008152600401610c5d91906117f7565b60405180910390fd5b6000610c74838360006109da565b9050600073ffffffffffffffffffffffffffffffffffffffff168173ffffffffffffffffffffffffffffffffffffffff1614610ce85760006040517f73c6ac6e000000000000000000000000000000000000000000000000000000008152600401610cdf91906117f7565b60405180910390fd5b505050565b600073ffffffffffffffffffffffffffffffffffffffff168273ffffffffffffffffffffffffffffffffffffffff1603610d5e57816040517f5b08ba18000000000000000000000000000000000000000000000000000000008152600401610d5591906117f7565b60405180910390fd5b80600560008573ffffffffffffffffffffffffffffffffffffffff1673ffffffffffffffffffffffffffffffffffffffff16815260200190815260200160002060008473ffffffffffffffffffffffffffffffffffffffff1673ffffffffffffffffffffffffffffffffffffffff16815260200190815260200160002060006101000a81548160ff0219169083151502179055508173ffffffffffffffffffffffffffffffffffffffff168373ffffffffffffffffffffffffffffffffffffffff167f17307eab39ab6107e8899845ad3d59bd9653f200f220920489ca2b5937696c3183604051610e4f9190611686565b60405180910390a3505050565b60008373ffffffffffffffffffffffffffffffffffffffff163b111561100d578273ffffffffffffffffffffffffffffffffffffffff1663150b7a02610ea06109c0565b8685856040518563ffffffff1660e01b8152600401610ec29493929190611d4f565b6020604051808303816000875af1925050508015610efe57506040513d601f19601f82011682018060405250810190610efb9190611db0565b60015b610f82573d8060008114610f2e576040519150601f19603f3d011682016040523d82523d6000602084013e610f33565b606091505b506000815103610f7a57836040517f64a0ae92000000000000000000000000000000000000000000000000000000008152600401610f7191906117f7565b60405180910390fd5b805181602001fd5b63150b7a0260e01b7bffffffffffffffffffffffffffffffffffffffffffffffffffffffff1916817bffffffffffffffffffffffffffffffffffffffffffffffffffffffff19161461100b57836040517f64a0ae9200000000000000000000000000000000000000000000000000000000815260040161100291906117f7565b60405180910390fd5b505b50505050565b606060405180602001604052806000815250905090565b606060006001611039846113be565b01905060008167ffffffffffffffff8111156110585761105761199e565b5b6040519080825280601f01601f19166020018201604052801561108a5781602001600182028036833780820191505090505b509050600082602001820190505b6001156110ed578080600190039150507f3031323334353637383961626364656600000000000000000000000000000000600a86061a8153600a85816110e1576110e0611ddd565b5b04945060008503611098575b819350505050919050565b60006002600083815260200190815260200160002060009054906101000a900473ffffffffffffffffffffffffffffffffffffffff169050919050565b808061116e5750600073ffffffffffffffffffffffffffffffffffffffff168273ffffffffffffffffffffffffffffffffffffffff1614155b156112a257600061117e846108fb565b9050600073ffffffffffffffffffffffffffffffffffffffff168373ffffffffffffffffffffffffffffffffffffffff16141580156111e957508273ffffffffffffffffffffffffffffffffffffffff168173ffffffffffffffffffffffffffffffffffffffff1614155b80156111fc57506111fa81846107fd565b155b1561123e57826040517fa9fbf51f00000000000000000000000000000000000000000000000000000000815260040161123591906117f7565b60405180910390fd5b81156112a057838573ffffffffffffffffffffffffffffffffffffffff168273ffffffffffffffffffffffffffffffffffffffff167f8c5be1e5ebec7d5bd14f71427d1e84f3dd0314c0f7b2291e5b200ac8c7c3b92560405160405180910390a45b505b836004600085815260200190815260200160002060006101000a81548173ffffffffffffffffffffffffffffffffffffffff021916908373ffffffffffffffffffffffffffffffffffffffff16021790555050505050565b611305838383611511565b6113b957600073ffffffffffffffffffffffffffffffffffffffff168373ffffffffffffffffffffffffffffffffffffffff160361137a57806040517f7e273289000000000000000000000000000000000000000000000000000000008152600401611371919061190d565b60405180910390fd5b81816040517f177e802f0000000000000000000000000000000000000000000000000000000081526004016113b0929190611e0c565b60405180910390fd5b505050565b600080600090507a184f03e93ff9f4daa797ed6e38ed64bf6a1f010000000000000000831061141c577a184f03e93ff9f4daa797ed6e38ed64bf6a1f010000000000000000838161141257611411611ddd565b5b0492506040810190505b6d04ee2d6d415b85acef81000000008310611459576d04ee2d6d415b85acef8100000000838161144f5761144e611ddd565b5b0492506020810190505b662386f26fc10000831061148857662386f26fc10000838161147e5761147d611ddd565b5b0492506010810190505b6305f5e10083106114b1576305f5e10083816114a7576114a6611ddd565b5b0492506008810190505b61271083106114d65761271083816114cc576114cb611ddd565b5b0492506004810190505b606483106114f957606483816114ef576114ee611ddd565b5b0492506002810190505b600a8310611508576001810190505b80915050919050565b60008073ffffffffffffffffffffffffffffffffffffffff168373ffffffffffffffffffffffffffffffffffffffff16141580156115c957508273ffffffffffffffffffffffffffffffffffffffff168473ffffffffffffffffffffffffffffffffffffffff16148061158a575061158984846107fd565b5b806115c857508273ffffffffffffffffffffffffffffffffffffffff166115b083610983565b73ffffffffffffffffffffffffffffffffffffffff16145b5b90509392505050565b6000604051905090565b600080fd5b600080fd5b60007fffffffff0000000000000000000000000000000000000000000000000000000082169050919050565b61161b816115e6565b811461162657600080fd5b50565b60008135905061163881611612565b92915050565b600060208284031215611654576116536115dc565b5b600061166284828501611629565b91505092915050565b60008115159050919050565b6116808161166b565b82525050565b600060208201905061169b6000830184611677565b92915050565b600081519050919050565b600082825260208201905092915050565b60005b838110156116db5780820151818401526020810190506116c0565b60008484015250505050565b6000601f19601f8301169050919050565b6000611703826116a1565b61170d81856116ac565b935061171d8185602086016116bd565b611726816116e7565b840191505092915050565b6000602082019050818103600083015261174b81846116f8565b905092915050565b6000819050919050565b61176681611753565b811461177157600080fd5b50565b6000813590506117838161175d565b92915050565b60006020828403121561179f5761179e6115dc565b5b60006117ad84828501611774565b91505092915050565b600073ffffffffffffffffffffffffffffffffffffffff82169050919050565b60006117e1826117b6565b9050919050565b6117f1816117d6565b82525050565b600060208201905061180c60008301846117e8565b92915050565b61181b816117d6565b811461182657600080fd5b50565b60008135905061183881611812565b92915050565b60008060408385031215611855576118546115dc565b5b600061186385828601611829565b925050602061187485828601611774565b9150509250929050565b600080600060608486031215611897576118966115dc565b5b60006118a586828701611829565b93505060206118b686828701611829565b92505060406118c786828701611774565b9150509250925092565b6000602082840312156118e7576118e66115dc565b5b60006118f584828501611829565b91505092915050565b61190781611753565b82525050565b600060208201905061192260008301846118fe565b92915050565b6119318161166b565b811461193c57600080fd5b50565b60008135905061194e81611928565b92915050565b6000806040838503121561196b5761196a6115dc565b5b600061197985828601611829565b925050602061198a8582860161193f565b9150509250929050565b600080fd5b600080fd5b7f4e487b7100000000000000000000000000000000000000000000000000000000600052604160045260246000fd5b6119d6826116e7565b810181811067ffffffffffffffff821117156119f5576119f461199e565b5b80604052505050565b6000611a086115d2565b9050611a1482826119cd565b919050565b600067ffffffffffffffff821115611a3457611a3361199e565b5b611a3d826116e7565b9050602081019050919050565b82818337600083830152505050565b6000611a6c611a6784611a19565b6119fe565b905082815260208101848484011115611a8857611a87611999565b5b611a93848285611a4a565b509392505050565b600082601f830112611ab057611aaf611994565b5b8135611ac0848260208601611a59565b91505092915050565b60008060008060808587031215611ae357611ae26115dc565b5b6000611af187828801611829565b9450506020611b0287828801611829565b9350506040611b1387828801611774565b925050606085013567ffffffffffffffff811115611b3457611b336115e1565b5b611b4087828801611a9b565b91505092959194509250565b60008060408385031215611b6357611b626115dc565b5b6000611b7185828601611829565b9250506020611b8285828601611829565b9150509250929050565b7f4e487b7100000000000000000000000000000000000000000000000000000000600052602260045260246000fd5b60006002820490506001821680611bd357607f821691505b602082108103611be657611be5611b8c565b5b50919050565b6000606082019050611c0160008301866117e8565b611c0e60208301856118fe565b611c1b60408301846117e8565b949350505050565b7f4e487b7100000000000000000000000000000000000000000000000000000000600052601160045260246000fd5b6000611c5d82611753565b91507fffffffffffffffffffffffffffffffffffffffffffffffffffffffffffffffff8203611c8f57611c8e611c23565b5b600182019050919050565b600081905092915050565b6000611cb0826116a1565b611cba8185611c9a565b9350611cca8185602086016116bd565b80840191505092915050565b6000611ce28285611ca5565b9150611cee8284611ca5565b91508190509392505050565b600081519050919050565b600082825260208201905092915050565b6000611d2182611cfa565b611d2b8185611d05565b9350611d3b8185602086016116bd565b611d44816116e7565b840191505092915050565b6000608082019050611d6460008301876117e8565b611d7160208301866117e8565b611d7e60408301856118fe565b8181036060830152611d908184611d16565b905095945050505050565b600081519050611daa81611612565b92915050565b600060208284031215611dc657611dc56115dc565b5b6000611dd484828501611d9b565b91505092915050565b7f4e487b7100000000000000000000000000000000000000000000000000000000600052601260045260246000fd5b6000604082019050611e2160008301856117e8565b611e2e60208301846118fe565b939250505056fea26469706673582212203ba5816d6dca5fef11ebc8f8e30fa418b2ea85e986ece567dcc166b278cdce8964736f6c63430008140033",
  "linkReferences": {},
  "deployedLinkReferences": {}
}