{
  "_format": "hh-sol-artifact-1",
  "contractName": "MembershipNFT",
  "sourceName": "contracts/DAO/MembershipNFT.sol",
  "abi": [
    {
      "inputs": [],
      "stateMutability": "nonpayable",
      "type": "constructor"
    },
    {
      "inputs": [
        {
          "internalType": "address",
          "name": "sender",
          "type": "address"
        },
        {
          "internalType": "uint256",
          "name": "tokenId",
          "type": "uint256"
        },
        {
          "internalType": "address",
          "name": "owner",
          "type": "address"
        }
      ],
      "name": "ERC721IncorrectOwner",
      "type": "error"
    },
    {
      "inputs": [
        {
          "internalType": "address",
          "name": "operator",
          "type": "address"
        },
        {
          "internalType": "uint256",
          "name": "tokenId",
          "type": "uint256"
        }
      ],
      "name": "ERC721InsufficientApproval",
      "type": "error"
    },
    {
      "inputs": [
        {
          "internalType": "address",
          "name": "approver",
          "type": "address"
        }
      ],
      "name": "ERC721InvalidApprover",
      "type": "error"
    },
    {
      "inputs": [
        {
          "internalType": "address",
          "name": "operator",
          "type": "address"
        }
      ],
      "name": "ERC721InvalidOperator",
      "type": "error"
    },
    {
      "inputs": [
        {
          "internalType": "address",
          "name": "owner",
          "type": "address"
        }
      ],
      "name": "ERC721InvalidOwner",
      "type": "error"
    },
    {
      "inputs": [
        {
          "internalType": "address",
          "name": "receiver",
          "type": "address"
        }
      ],
      "name": "ERC721InvalidReceiver",
      "type": "error"
    },
    {
      "inputs": [
        {
          "internalType": "address",
          "name": "sender",
          "type": "address"
        }
      ],
      "name": "ERC721InvalidSender",
      "type": "error"
    },
    {
      "inputs": [
        {
          "internalType": "uint256",
          "name": "tokenId",
          "type": "uint256"
        }
      ],
      "name": "ERC721NonexistentToken",
      "type": "error"
    },
    {
      "anonymous": false,
      "inputs": [
        {
          "indexed": true,
          "internalType": "address",
          "name": "owner",
          "type": "address"
        },
        {
          "indexed": true,
          "internalType": "address",
          "name": "approved",
          "type": "address"
        },
        {
          "indexed": true,
          "internalType": "uint256",
          "name": "tokenId",
          "type": "uint256"
        }
      ],
      "name": "Approval",
      "type": "event"
    },
    {
      "anonymous": false,
      "inputs": [
        {
          "indexed": true,
          "internalType": "address",
          "name": "owner",
          "type": "address"
        },
        {
          "indexed": true,
          "internalType": "address",
          "name": "operator",
          "type": "address"
        },
        {
          "indexed": false,
          "internalType": "bool",
          "name": "approved",
          "type": "bool"
        }
      ],
      "name": "ApprovalForAll",
      "type": "event"
    },
    {
      "anonymous": false,
      "inputs": [
        {
          "indexed": false,
          "internalType": "address",
          "name": "member",
          "type": "address"
        },
        {
          "indexed": false,
          "internalType": "uint256",
          "name": "tokenId",
          "type": "uint256"
        }
      ],
      "name": "TokenIssued",
      "type": "event"
    },
    {
      "anonymous": false,
      "inputs": [
        {
          "indexed": true,
          "internalType": "address",
          "name": "from",
          "type": "address"
        },
        {
          "indexed": true,
          "internalType": "address",
          "name": "to",
          "type": "address"
        },
        {
          "indexed": true,
          "internalType": "uint256",
          "name": "tokenId",
          "type": "uint256"
        }
      ],
      "name": "Transfer",
      "type": "event"
    },
    {
      "inputs": [
        {
          "internalType": "address",
          "name": "to",
          "type": "address"
        },
        {
          "internalType": "uint256",
          "name": "tokenId",
          "type": "uint256"
        }
      ],
      "name": "approve",
      "outputs": [],
      "stateMutability": "nonpayable",
      "type": "function"
    },
    {
      "inputs": [
        {
          "internalType": "address",
          "name": "owner",
          "type": "address"
        }
      ],
      "name": "balanceOf",
      "outputs": [
        {
          "internalType": "uint256",
          "name": "",
          "type": "uint256"
        }
      ],
      "stateMutability": "view",
      "type": "function"
    },
    {
      "inputs": [
        {
          "internalType": "uint256",
          "name": "tokenId",
          "type": "uint256"
        }
      ],
      "name": "getApproved",
      "outputs": [
        {
          "internalType": "address",
          "name": "",
          "type": "address"
        }
      ],
      "stateMutability": "view",
      "type": "function"
    },
    {
      "inputs": [
        {
          "internalType": "address",
          "name": "owner",
          "type": "address"
        },
        {
          "internalType": "address",
          "name": "operator",
          "type": "address"
        }
      ],
      "name": "isApprovedForAll",
      "outputs": [
        {
          "internalType": "bool",
          "name": "",
          "type": "bool"
        }
      ],
      "stateMutability": "view",
      "type": "function"
    },
    {
      "inputs": [
        {
          "internalType": "address",
          "name": "to",
          "type": "address"
        }
      ],
      "name": "issueToken",
      "outputs": [
        {
          "internalType": "uint256",
          "name": "",
          "type": "uint256"
        }
      ],
      "stateMutability": "nonpayable",
      "type": "function"
    },
    {
      "inputs": [],
      "name": "name",
      "outputs": [
        {
          "internalType": "string",
          "name": "",
          "type": "string"
        }
      ],
      "stateMutability": "view",
      "type": "function"
    },
    {
      "inputs": [],
      "name": "owner",
      "outputs": [
        {
          "internalType": "address",
          "name": "",
          "type": "address"
        }
      ],
      "stateMutability": "view",
      "type": "function"
    },
    {
      "inputs": [
        {
          "internalType": "uint256",
          "name": "tokenId",
          "type": "uint256"
        }
      ],
      "name": "ownerOf",
      "outputs": [
        {
          "internalType": "address",
          "name": "",
          "type": "address"
        }
      ],
      "stateMutability": "view",
      "type": "function"
    },
    {
      "inputs": [
        {
          "internalType": "address",
          "name": "from",
          "type": "address"
        },
        {
          "internalType": "address",
          "name": "to",
          "type": "address"
        },
        {
          "internalType": "uint256",
          "name": "tokenId",
          "type": "uint256"
        }
      ],
      "name": "safeTransferFrom",
      "outputs": [],
      "stateMutability": "nonpayable",
      "type": "function"
    },
    {
      "inputs": [
        {
          "internalType": "address",
          "name": "from",
          "type": "address"
        },
        {
          "internalType": "address",
          "name": "to",
          "type": "address"
        },
        {
          "internalType": "uint256",
          "name": "tokenId",
          "type": "uint256"
        },
        {
          "internalType": "bytes",
          "name": "data",
          "type": "bytes"
        }
      ],
      "name": "safeTransferFrom",
      "outputs": [],
      "stateMutability": "nonpayable",
      "type": "function"
    },
    {
      "inputs": [
        {
          "internalType": "address",
          "name": "operator",
          "type": "address"
        },
        {
          "internalType": "bool",
          "name": "approved",
          "type": "bool"
        }
      ],
      "name": "setApprovalForAll",
      "outputs": [],
      "stateMutability": "nonpayable",
      "type": "function"
    },
    {
      "inputs": [
        {
          "internalType": "bytes4",
          "name": "interfaceId",
          "type": "bytes4"
        }
      ],
      "name": "supportsInterface",
      "outputs": [
        {
          "internalType": "bool",
          "name": "",
          "type": "bool"
        }
      ],
      "stateMutability": "view",
      "type": "function"
    },
    {
      "inputs": [],
      "name": "symbol",
      "outputs": [
        {
          "internalType": "string",
          "name": "",
          "type": "string"
        }
      ],
      "stateMutability": "view",
      "type": "function"
    },
    {
      "inputs": [
        {
          "internalType": "uint256",
          "name": "tokenId",
          "type": "uint256"
        }
      ],
      "name": "tokenURI",
      "outputs": [
        {
          "internalType": "string",
          "name": "",
          "type": "string"
        }
      ],
      "stateMutability": "view",
      "type": "function"
    },
    {
      "inputs": [
        {
          "internalType": "address",
          "name": "from",
          "type": "address"
        },
        {
          "internalType": "address",
          "name": "to",
          "type": "address"
        },
        {
          "internalType": "uint256",
          "name": "tokenId",
          "type": "uint256"
        }
      ],
      "name": "transferFrom",
      "outputs": [],
      "stateMutability": "nonpayable",
      "type": "function"
    }
  ],
  "bytecode": "0x608060405260006006553480156200001657600080fd5b506040518060400160405280600d81526020017f4d656d626572736869704e4654000000000000000000000000000000000000008152506040518060400160405280600481526020017f4d4e46540000000000000000000000000000000000000000000000000000000081525081600090816200009491906200036a565b508060019081620000a691906200036a565b50505033600760006101000a81548173ffffffffffffffffffffffffffffffffffffffff021916908373ffffffffffffffffffffffffffffffffffffffff16021790555062000451565b600081519050919050565b7f4e487b7100000000000000000000000000000000000000000000000000000000600052604160045260246000fd5b7f4e487b7100000000000000000000000000000000000000000000000000000000600052602260045260246000fd5b600060028204905060018216806200017257607f821691505b6020821081036200018857620001876200012a565b5b50919050565b60008190508160005260206000209050919050565b60006020601f8301049050919050565b600082821b905092915050565b600060088302620001f27fffffffffffffffffffffffffffffffffffffffffffffffffffffffffffffffff82620001b3565b620001fe8683620001b3565b95508019841693508086168417925050509392505050565b6000819050919050565b6000819050919050565b60006200024b620002456200023f8462000216565b62000220565b62000216565b9050919050565b6000819050919050565b62000267836200022a565b6200027f620002768262000252565b848454620001c0565b825550505050565b600090565b6200029662000287565b620002a38184846200025c565b505050565b5b81811015620002cb57620002bf6000826200028c565b600181019050620002a9565b5050565b601f8211156200031a57620002e4816200018e565b620002ef84620001a3565b81016020851015620002ff578190505b620003176200030e85620001a3565b830182620002a8565b50505b505050565b600082821c905092915050565b60006200033f600019846008026200031f565b1980831691505092915050565b60006200035a83836200032c565b9150826002028217905092915050565b6200037582620000f0565b67ffffffffffffffff811115620003915762000390620000fb565b5b6200039d825462000159565b620003aa828285620002cf565b600060209050601f831160018114620003e25760008415620003cd578287015190505b620003d985826200034c565b86555062000449565b601f198416620003f2866200018e565b60005b828110156200041c57848901518255600182019150602085019450602081019050620003f5565b868310156200043c578489015162000438601f8916826200032c565b8355505b6001600288020188555050505b505050505050565b61201580620004616000396000f3fe608060405234801561001057600080fd5b50600436106100f55760003560e01c806370a0823111610097578063a22cb46511610066578063a22cb46514610298578063b88d4fde146102b4578063c87b56dd146102d0578063e985e9c514610300576100f5565b806370a08231146101fc578063890340821461022c5780638da5cb5b1461025c57806395d89b411461027a576100f5565b8063095ea7b3116100d3578063095ea7b31461017857806323b872dd1461019457806342842e0e146101b05780636352211e146101cc576100f5565b806301ffc9a7146100fa57806306fdde031461012a578063081812fc14610148575b600080fd5b610114600480360381019061010f9190611756565b610330565b604051610121919061179e565b60405180910390f35b610132610412565b60405161013f9190611849565b60405180910390f35b610162600480360381019061015d91906118a1565b6104a4565b60405161016f919061190f565b60405180910390f35b610192600480360381019061018d9190611956565b6104c0565b005b6101ae60048036038101906101a99190611996565b6104d6565b005b6101ca60048036038101906101c59190611996565b6105d8565b005b6101e660048036038101906101e191906118a1565b6105f8565b6040516101f3919061190f565b60405180910390f35b610216600480360381019061021191906119e9565b61060a565b6040516102239190611a25565b60405180910390f35b610246600480360381019061024191906119e9565b6106c4565b6040516102539190611a25565b60405180910390f35b6102646107c1565b604051610271919061190f565b60405180910390f35b6102826107e7565b60405161028f9190611849565b60405180910390f35b6102b260048036038101906102ad9190611a6c565b610879565b005b6102ce60048036038101906102c99190611be1565b61088f565b005b6102ea60048036038101906102e591906118a1565b6108ac565b6040516102f79190611849565b60405180910390f35b61031a60048036038101906103159190611c64565b610915565b604051610327919061179e565b60405180910390f35b60007f80ac58cd000000000000000000000000000000000000000000000000000000007bffffffffffffffffffffffffffffffffffffffffffffffffffffffff1916827bffffffffffffffffffffffffffffffffffffffffffffffffffffffff191614806103fb57507f5b5e139f000000000000000000000000000000000000000000000000000000007bffffffffffffffffffffffffffffffffffffffffffffffffffffffff1916827bffffffffffffffffffffffffffffffffffffffffffffffffffffffff1916145b8061040b575061040a826109a9565b5b9050919050565b60606000805461042190611cd3565b80601f016020809104026020016040519081016040528092919081815260200182805461044d90611cd3565b801561049a5780601f1061046f5761010080835404028352916020019161049a565b820191906000526020600020905b81548152906001019060200180831161047d57829003601f168201915b5050505050905090565b60006104af82610a13565b506104b982610a9b565b9050919050565b6104d282826104cd610ad8565b610ae0565b5050565b600073ffffffffffffffffffffffffffffffffffffffff168273ffffffffffffffffffffffffffffffffffffffff16036105485760006040517f64a0ae9200000000000000000000000000000000000000000000000000000000815260040161053f919061190f565b60405180910390fd5b600061055c8383610557610ad8565b610af2565b90508373ffffffffffffffffffffffffffffffffffffffff168173ffffffffffffffffffffffffffffffffffffffff16146105d2578382826040517f64283d7b0000000000000000000000000000000000000000000000000000000081526004016105c993929190611d04565b60405180910390fd5b50505050565b6105f38383836040518060200160405280600081525061088f565b505050565b600061060382610a13565b9050919050565b60008073ffffffffffffffffffffffffffffffffffffffff168273ffffffffffffffffffffffffffffffffffffffff160361067d5760006040517f89c62b64000000000000000000000000000000000000000000000000000000008152600401610674919061190f565b60405180910390fd5b600360008373ffffffffffffffffffffffffffffffffffffffff1673ffffffffffffffffffffffffffffffffffffffff168152602001908152602001600020549050919050565b6000600760009054906101000a900473ffffffffffffffffffffffffffffffffffffffff1673ffffffffffffffffffffffffffffffffffffffff163373ffffffffffffffffffffffffffffffffffffffff1614610756576040517f08c379a000000000000000000000000000000000000000000000000000000000815260040161074d90611dad565b60405180910390fd5b6006600081548092919061076990611dfc565b91905055506000600654905061077f8382610d0c565b7fcd04e188e9e3af769a0f103b290535c8758dbdd6e8b2d7f33aaaf2dc38e4b15183826040516107b0929190611e44565b60405180910390a180915050919050565b600760009054906101000a900473ffffffffffffffffffffffffffffffffffffffff1681565b6060600180546107f690611cd3565b80601f016020809104026020016040519081016040528092919081815260200182805461082290611cd3565b801561086f5780601f106108445761010080835404028352916020019161086f565b820191906000526020600020905b81548152906001019060200180831161085257829003601f168201915b5050505050905090565b61088b610884610ad8565b8383610e05565b5050565b61089a8484846104d6565b6108a684848484610f74565b50505050565b60606108b782610a13565b5060006108c261112b565b905060008151116108e2576040518060200160405280600081525061090d565b806108ec84611142565b6040516020016108fd929190611ea9565b6040516020818303038152906040525b915050919050565b6000600560008473ffffffffffffffffffffffffffffffffffffffff1673ffffffffffffffffffffffffffffffffffffffff16815260200190815260200160002060008373ffffffffffffffffffffffffffffffffffffffff1673ffffffffffffffffffffffffffffffffffffffff16815260200190815260200160002060009054906101000a900460ff16905092915050565b60007f01ffc9a7000000000000000000000000000000000000000000000000000000007bffffffffffffffffffffffffffffffffffffffffffffffffffffffff1916827bffffffffffffffffffffffffffffffffffffffffffffffffffffffff1916149050919050565b600080610a1f83611210565b9050600073ffffffffffffffffffffffffffffffffffffffff168173ffffffffffffffffffffffffffffffffffffffff1603610a9257826040517f7e273289000000000000000000000000000000000000000000000000000000008152600401610a899190611a25565b60405180910390fd5b80915050919050565b60006004600083815260200190815260200160002060009054906101000a900473ffffffffffffffffffffffffffffffffffffffff169050919050565b600033905090565b610aed838383600161124d565b505050565b600080610afe84611210565b9050600073ffffffffffffffffffffffffffffffffffffffff168373ffffffffffffffffffffffffffffffffffffffff1614610b4057610b3f818486611412565b5b600073ffffffffffffffffffffffffffffffffffffffff168173ffffffffffffffffffffffffffffffffffffffff1614610bd157610b8260008560008061124d565b6001600360008373ffffffffffffffffffffffffffffffffffffffff1673ffffffffffffffffffffffffffffffffffffffff168152602001908152602001600020600082825403925050819055505b600073ffffffffffffffffffffffffffffffffffffffff168573ffffffffffffffffffffffffffffffffffffffff1614610c54576001600360008773ffffffffffffffffffffffffffffffffffffffff1673ffffffffffffffffffffffffffffffffffffffff168152602001908152602001600020600082825401925050819055505b846002600086815260200190815260200160002060006101000a81548173ffffffffffffffffffffffffffffffffffffffff021916908373ffffffffffffffffffffffffffffffffffffffff160217905550838573ffffffffffffffffffffffffffffffffffffffff168273ffffffffffffffffffffffffffffffffffffffff167fddf252ad1be2c89b69c2b068fc378daa952ba7f163c4a11628f55a4df523b3ef60405160405180910390a4809150509392505050565b600073ffffffffffffffffffffffffffffffffffffffff168273ffffffffffffffffffffffffffffffffffffffff1603610d7e5760006040517f64a0ae92000000000000000000000000000000000000000000000000000000008152600401610d75919061190f565b60405180910390fd5b6000610d8c83836000610af2565b9050600073ffffffffffffffffffffffffffffffffffffffff168173ffffffffffffffffffffffffffffffffffffffff1614610e005760006040517f73c6ac6e000000000000000000000000000000000000000000000000000000008152600401610df7919061190f565b60405180910390fd5b505050565b600073ffffffffffffffffffffffffffffffffffffffff168273ffffffffffffffffffffffffffffffffffffffff1603610e7657816040517f5b08ba18000000000000000000000000000000000000000000000000000000008152600401610e6d919061190f565b60405180910390fd5b80600560008573ffffffffffffffffffffffffffffffffffffffff1673ffffffffffffffffffffffffffffffffffffffff16815260200190815260200160002060008473ffffffffffffffffffffffffffffffffffffffff1673ffffffffffffffffffffffffffffffffffffffff16815260200190815260200160002060006101000a81548160ff0219169083151502179055508173ffffffffffffffffffffffffffffffffffffffff168373ffffffffffffffffffffffffffffffffffffffff167f17307eab39ab6107e8899845ad3d59bd9653f200f220920489ca2b5937696c3183604051610f67919061179e565b60405180910390a3505050565b60008373ffffffffffffffffffffffffffffffffffffffff163b1115611125578273ffffffffffffffffffffffffffffffffffffffff1663150b7a02610fb8610ad8565b8685856040518563ffffffff1660e01b8152600401610fda9493929190611f22565b6020604051808303816000875af192505050801561101657506040513d601f19601f820116820180604052508101906110139190611f83565b60015b61109a573d8060008114611046576040519150601f19603f3d011682016040523d82523d6000602084013e61104b565b606091505b50600081510361109257836040517f64a0ae92000000000000000000000000000000000000000000000000000000008152600401611089919061190f565b60405180910390fd5b805181602001fd5b63150b7a0260e01b7bffffffffffffffffffffffffffffffffffffffffffffffffffffffff1916817bffffffffffffffffffffffffffffffffffffffffffffffffffffffff19161461112357836040517f64a0ae9200000000000000000000000000000000000000000000000000000000815260040161111a919061190f565b60405180910390fd5b505b50505050565b606060405180602001604052806000815250905090565b606060006001611151846114d6565b01905060008167ffffffffffffffff8111156111705761116f611ab6565b5b6040519080825280601f01601f1916602001820160405280156111a25781602001600182028036833780820191505090505b509050600082602001820190505b600115611205578080600190039150507f3031323334353637383961626364656600000000000000000000000000000000600a86061a8153600a85816111f9576111f8611fb0565b5b049450600085036111b0575b819350505050919050565b60006002600083815260200190815260200160002060009054906101000a900473ffffffffffffffffffffffffffffffffffffffff169050919050565b80806112865750600073ffffffffffffffffffffffffffffffffffffffff168273ffffffffffffffffffffffffffffffffffffffff1614155b156113ba57600061129684610a13565b9050600073ffffffffffffffffffffffffffffffffffffffff168373ffffffffffffffffffffffffffffffffffffffff161415801561130157508273ffffffffffffffffffffffffffffffffffffffff168173ffffffffffffffffffffffffffffffffffffffff1614155b801561131457506113128184610915565b155b1561135657826040517fa9fbf51f00000000000000000000000000000000000000000000000000000000815260040161134d919061190f565b60405180910390fd5b81156113b857838573ffffffffffffffffffffffffffffffffffffffff168273ffffffffffffffffffffffffffffffffffffffff167f8c5be1e5ebec7d5bd14f71427d1e84f3dd0314c0f7b2291e5b200ac8c7c3b92560405160405180910390a45b505b836004600085815260200190815260200160002060006101000a81548173ffffffffffffffffffffffffffffffffffffffff021916908373ffffffffffffffffffffffffffffffffffffffff16021790555050505050565b61141d838383611629565b6114d157600073ffffffffffffffffffffffffffffffffffffffff168373ffffffffffffffffffffffffffffffffffffffff160361149257806040517f7e2732890000000000000000000000000000000000000000000000000000000081526004016114899190611a25565b60405180910390fd5b81816040517f177e802f0000000000000000000000000000000000000000000000000000000081526004016114c8929190611e44565b60405180910390fd5b505050565b600080600090507a184f03e93ff9f4daa797ed6e38ed64bf6a1f0100000000000000008310611534577a184f03e93ff9f4daa797ed6e38ed64bf6a1f010000000000000000838161152a57611529611fb0565b5b0492506040810190505b6d04ee2d6d415b85acef81000000008310611571576d04ee2d6d415b85acef8100000000838161156757611566611fb0565b5b0492506020810190505b662386f26fc1000083106115a057662386f26fc10000838161159657611595611fb0565b5b0492506010810190505b6305f5e10083106115c9576305f5e10083816115bf576115be611fb0565b5b0492506008810190505b61271083106115ee5761271083816115e4576115e3611fb0565b5b0492506004810190505b60648310611611576064838161160757611606611fb0565b5b0492506002810190505b600a8310611620576001810190505b80915050919050565b60008073ffffffffffffffffffffffffffffffffffffffff168373ffffffffffffffffffffffffffffffffffffffff16141580156116e157508273ffffffffffffffffffffffffffffffffffffffff168473ffffffffffffffffffffffffffffffffffffffff1614806116a257506116a18484610915565b5b806116e057508273ffffffffffffffffffffffffffffffffffffffff166116c883610a9b565b73ffffffffffffffffffffffffffffffffffffffff16145b5b90509392505050565b6000604051905090565b600080fd5b600080fd5b60007fffffffff0000000000000000000000000000000000000000000000000000000082169050919050565b611733816116fe565b811461173e57600080fd5b50565b6000813590506117508161172a565b92915050565b60006020828403121561176c5761176b6116f4565b5b600061177a84828501611741565b91505092915050565b60008115159050919050565b61179881611783565b82525050565b60006020820190506117b3600083018461178f565b92915050565b600081519050919050565b600082825260208201905092915050565b60005b838110156117f35780820151818401526020810190506117d8565b60008484015250505050565b6000601f19601f8301169050919050565b600061181b826117b9565b61182581856117c4565b93506118358185602086016117d5565b61183e816117ff565b840191505092915050565b600060208201905081810360008301526118638184611810565b905092915050565b6000819050919050565b61187e8161186b565b811461188957600080fd5b50565b60008135905061189b81611875565b92915050565b6000602082840312156118b7576118b66116f4565b5b60006118c58482850161188c565b91505092915050565b600073ffffffffffffffffffffffffffffffffffffffff82169050919050565b60006118f9826118ce565b9050919050565b611909816118ee565b82525050565b60006020820190506119246000830184611900565b92915050565b611933816118ee565b811461193e57600080fd5b50565b6000813590506119508161192a565b92915050565b6000806040838503121561196d5761196c6116f4565b5b600061197b85828601611941565b925050602061198c8582860161188c565b9150509250929050565b6000806000606084860312156119af576119ae6116f4565b5b60006119bd86828701611941565b93505060206119ce86828701611941565b92505060406119df8682870161188c565b9150509250925092565b6000602082840312156119ff576119fe6116f4565b5b6000611a0d84828501611941565b91505092915050565b611a1f8161186b565b82525050565b6000602082019050611a3a6000830184611a16565b92915050565b611a4981611783565b8114611a5457600080fd5b50565b600081359050611a6681611a40565b92915050565b60008060408385031215611a8357611a826116f4565b5b6000611a9185828601611941565b9250506020611aa285828601611a57565b9150509250929050565b600080fd5b600080fd5b7f4e487b7100000000000000000000000000000000000000000000000000000000600052604160045260246000fd5b611aee826117ff565b810181811067ffffffffffffffff82111715611b0d57611b0c611ab6565b5b80604052505050565b6000611b206116ea565b9050611b2c8282611ae5565b919050565b600067ffffffffffffffff821115611b4c57611b4b611ab6565b5b611b55826117ff565b9050602081019050919050565b82818337600083830152505050565b6000611b84611b7f84611b31565b611b16565b905082815260208101848484011115611ba057611b9f611ab1565b5b611bab848285611b62565b509392505050565b600082601f830112611bc857611bc7611aac565b5b8135611bd8848260208601611b71565b91505092915050565b60008060008060808587031215611bfb57611bfa6116f4565b5b6000611c0987828801611941565b9450506020611c1a87828801611941565b9350506040611c2b8782880161188c565b925050606085013567ffffffffffffffff811115611c4c57611c4b6116f9565b5b611c5887828801611bb3565b91505092959194509250565b60008060408385031215611c7b57611c7a6116f4565b5b6000611c8985828601611941565b9250506020611c9a85828601611941565b9150509250929050565b7f4e487b7100000000000000000000000000000000000000000000000000000000600052602260045260246000fd5b60006002820490506001821680611ceb57607f821691505b602082108103611cfe57611cfd611ca4565b5b50919050565b6000606082019050611d196000830186611900565b611d266020830185611a16565b611d336040830184611900565b949350505050565b7f596f7520646f206e6f742068617665207468652072657175697265642070726960008201527f76696c6567657320746f20646f20746869730000000000000000000000000000602082015250565b6000611d976032836117c4565b9150611da282611d3b565b604082019050919050565b60006020820190508181036000830152611dc681611d8a565b9050919050565b7f4e487b7100000000000000000000000000000000000000000000000000000000600052601160045260246000fd5b6000611e078261186b565b91507fffffffffffffffffffffffffffffffffffffffffffffffffffffffffffffffff8203611e3957611e38611dcd565b5b600182019050919050565b6000604082019050611e596000830185611900565b611e666020830184611a16565b9392505050565b600081905092915050565b6000611e83826117b9565b611e8d8185611e6d565b9350611e9d8185602086016117d5565b80840191505092915050565b6000611eb58285611e78565b9150611ec18284611e78565b91508190509392505050565b600081519050919050565b600082825260208201905092915050565b6000611ef482611ecd565b611efe8185611ed8565b9350611f0e8185602086016117d5565b611f17816117ff565b840191505092915050565b6000608082019050611f376000830187611900565b611f446020830186611900565b611f516040830185611a16565b8181036060830152611f638184611ee9565b905095945050505050565b600081519050611f7d8161172a565b92915050565b600060208284031215611f9957611f986116f4565b5b6000611fa784828501611f6e565b91505092915050565b7f4e487b7100000000000000000000000000000000000000000000000000000000600052601260045260246000fdfea2646970667358221220686638583e5745a02dce250a79e281de5d5ad3388b4e32a4c715ce59d174428a64736f6c63430008140033",
  "linkReferences": {},
  "deployedLinkReferences": {}
}