{
  "_format": "hh-sol-artifact-1",
  "contractName": "VotingContract",
  "sourceName": "contracts/DAO/Voting.sol",
  "abi": [
    {
      "inputs": [
        {
          "internalType": "address",
          "name": "tokenAddress",
          "type": "address"
        }
      ],
      "stateMutability": "nonpayable",
      "type": "constructor"
    },
    {
      "anonymous": false,
      "inputs": [
        {
          "indexed": true,
          "internalType": "uint256",
          "name": "proposalIndex",
          "type": "uint256"
        },
        {
          "indexed": false,
          "internalType": "string",
          "name": "description",
          "type": "string"
        }
      ],
      "name": "ProposalCreated",
      "type": "event"
    },
    {
      "anonymous": false,
      "inputs": [
        {
          "indexed": true,
          "internalType": "address",
          "name": "voter",
          "type": "address"
        },
        {
          "indexed": false,
          "internalType": "uint256",
          "name": "proposalIndex",
          "type": "uint256"
        },
        {
          "indexed": false,
          "internalType": "uint256",
          "name": "voteAmount",
          "type": "uint256"
        }
      ],
      "name": "Voted",
      "type": "event"
    },
    {
      "inputs": [
        {
          "internalType": "string",
          "name": "description",
          "type": "string"
        }
      ],
      "name": "createProposal",
      "outputs": [],
      "stateMutability": "nonpayable",
      "type": "function"
    },
    {
      "inputs": [],
      "name": "getProposalCount",
      "outputs": [
        {
          "internalType": "uint256",
          "name": "",
          "type": "uint256"
        }
      ],
      "stateMutability": "view",
      "type": "function"
    },
    {
      "inputs": [
        {
          "internalType": "uint256",
          "name": "proposalIndex",
          "type": "uint256"
        }
      ],
      "name": "getProposalVotes",
      "outputs": [
        {
          "internalType": "uint256",
          "name": "",
          "type": "uint256"
        }
      ],
      "stateMutability": "view",
      "type": "function"
    },
    {
      "inputs": [
        {
          "internalType": "address",
          "name": "",
          "type": "address"
        }
      ],
      "name": "hasVoted",
      "outputs": [
        {
          "internalType": "bool",
          "name": "",
          "type": "bool"
        }
      ],
      "stateMutability": "view",
      "type": "function"
    },
    {
      "inputs": [],
      "name": "owner",
      "outputs": [
        {
          "internalType": "address",
          "name": "",
          "type": "address"
        }
      ],
      "stateMutability": "view",
      "type": "function"
    },
    {
      "inputs": [
        {
          "internalType": "uint256",
          "name": "",
          "type": "uint256"
        }
      ],
      "name": "proposals",
      "outputs": [
        {
          "internalType": "string",
          "name": "description",
          "type": "string"
        },
        {
          "internalType": "uint256",
          "name": "voteCount",
          "type": "uint256"
        }
      ],
      "stateMutability": "view",
      "type": "function"
    },
    {
      "inputs": [],
      "name": "token",
      "outputs": [
        {
          "internalType": "contract IParticipationToken",
          "name": "",
          "type": "address"
        }
      ],
      "stateMutability": "view",
      "type": "function"
    },
    {
      "inputs": [
        {
          "internalType": "uint256",
          "name": "proposalIndex",
          "type": "uint256"
        }
      ],
      "name": "vote",
      "outputs": [],
      "stateMutability": "nonpayable",
      "type": "function"
    },
    {
      "inputs": [
        {
          "internalType": "address",
          "name": "",
          "type": "address"
        }
      ],
      "name": "votes",
      "outputs": [
        {
          "internalType": "uint256",
          "name": "",
          "type": "uint256"
        }
      ],
      "stateMutability": "view",
      "type": "function"
    }
  ],
  "bytecode": "0x60806040523480156200001157600080fd5b506040516200121338038062001213833981810160405281019062000037919062000129565b80600160006101000a81548173ffffffffffffffffffffffffffffffffffffffff021916908373ffffffffffffffffffffffffffffffffffffffff160217905550336000806101000a81548173ffffffffffffffffffffffffffffffffffffffff021916908373ffffffffffffffffffffffffffffffffffffffff160217905550506200015b565b600080fd5b600073ffffffffffffffffffffffffffffffffffffffff82169050919050565b6000620000f182620000c4565b9050919050565b6200010381620000e4565b81146200010f57600080fd5b50565b6000815190506200012381620000f8565b92915050565b600060208284031215620001425762000141620000bf565b5b6000620001528482850162000112565b91505092915050565b6110a8806200016b6000396000f3fe608060405234801561001057600080fd5b50600436106100935760003560e01c806349c2a1a61161006657806349c2a1a6146101455780638da5cb5b14610161578063c08cc02d1461017f578063d8bff5a51461019d578063fc0c546a146101cd57610093565b80630121b93f14610098578063013cf08b146100b457806309eef43e146100e557806347c6614014610115575b600080fd5b6100b260048036038101906100ad9190610741565b6101eb565b005b6100ce60048036038101906100c99190610741565b61048d565b6040516100dc92919061080d565b60405180910390f35b6100ff60048036038101906100fa919061089b565b610549565b60405161010c91906108e3565b60405180910390f35b61012f600480360381019061012a9190610741565b610569565b60405161013c91906108fe565b60405180910390f35b61015f600480360381019061015a9190610a4e565b6105df565b005b610169610688565b6040516101769190610aa6565b60405180910390f35b6101876106ac565b60405161019491906108fe565b60405180910390f35b6101b760048036038101906101b2919061089b565b6106b9565b6040516101c491906108fe565b60405180910390f35b6101d56106d1565b6040516101e29190610b20565b60405180910390f35b600360003373ffffffffffffffffffffffffffffffffffffffff1673ffffffffffffffffffffffffffffffffffffffff16815260200190815260200160002060009054906101000a900460ff1615610278576040517f08c379a000000000000000000000000000000000000000000000000000000000815260040161026f90610b87565b60405180910390fd5b6000600160009054906101000a900473ffffffffffffffffffffffffffffffffffffffff1673ffffffffffffffffffffffffffffffffffffffff166370a08231336040518263ffffffff1660e01b81526004016102d59190610aa6565b602060405180830381865afa1580156102f2573d6000803e3d6000fd5b505050506040513d601f19601f820116820180604052508101906103169190610bbc565b90506000811161035b576040517f08c379a000000000000000000000000000000000000000000000000000000000815260040161035290610c35565b60405180910390fd5b60006002838154811061037157610370610c55565b5b90600052602060002090600202019050818160010160008282546103959190610cb3565b925050819055506001600360003373ffffffffffffffffffffffffffffffffffffffff1673ffffffffffffffffffffffffffffffffffffffff16815260200190815260200160002060006101000a81548160ff02191690831515021790555081600460003373ffffffffffffffffffffffffffffffffffffffff1673ffffffffffffffffffffffffffffffffffffffff168152602001908152602001600020819055503373ffffffffffffffffffffffffffffffffffffffff167fea66f58e474bc09f580000e81f31b334d171db387d0c6098ba47bd897741679b8484604051610480929190610ce7565b60405180910390a2505050565b6002818154811061049d57600080fd5b90600052602060002090600202016000915090508060000180546104c090610d3f565b80601f01602080910402602001604051908101604052809291908181526020018280546104ec90610d3f565b80156105395780601f1061050e57610100808354040283529160200191610539565b820191906000526020600020905b81548152906001019060200180831161051c57829003601f168201915b5050505050908060010154905082565b60036020528060005260406000206000915054906101000a900460ff1681565b600060028054905082106105b2576040517f08c379a00000000000000000000000000000000000000000000000000000000081526004016105a990610dbc565b60405180910390fd5b600282815481106105c6576105c5610c55565b5b9060005260206000209060020201600101549050919050565b600060028054905090506002604051806040016040528084815260200160008152509080600181540180825580915050600190039060005260206000209060020201600090919091909150600082015181600001908161063f9190610f7e565b50602082015181600101555050807f9c770c289ab5bf7e57cb1d23c8ceae993aea46eb64847072fd3d78ca60d3e4328360405161067c9190611050565b60405180910390a25050565b60008054906101000a900473ffffffffffffffffffffffffffffffffffffffff1681565b6000600280549050905090565b60046020528060005260406000206000915090505481565b600160009054906101000a900473ffffffffffffffffffffffffffffffffffffffff1681565b6000604051905090565b600080fd5b600080fd5b6000819050919050565b61071e8161070b565b811461072957600080fd5b50565b60008135905061073b81610715565b92915050565b60006020828403121561075757610756610701565b5b60006107658482850161072c565b91505092915050565b600081519050919050565b600082825260208201905092915050565b60005b838110156107a857808201518184015260208101905061078d565b60008484015250505050565b6000601f19601f8301169050919050565b60006107d08261076e565b6107da8185610779565b93506107ea81856020860161078a565b6107f3816107b4565b840191505092915050565b6108078161070b565b82525050565b6000604082019050818103600083015261082781856107c5565b905061083660208301846107fe565b9392505050565b600073ffffffffffffffffffffffffffffffffffffffff82169050919050565b60006108688261083d565b9050919050565b6108788161085d565b811461088357600080fd5b50565b6000813590506108958161086f565b92915050565b6000602082840312156108b1576108b0610701565b5b60006108bf84828501610886565b91505092915050565b60008115159050919050565b6108dd816108c8565b82525050565b60006020820190506108f860008301846108d4565b92915050565b600060208201905061091360008301846107fe565b92915050565b600080fd5b600080fd5b7f4e487b7100000000000000000000000000000000000000000000000000000000600052604160045260246000fd5b61095b826107b4565b810181811067ffffffffffffffff8211171561097a57610979610923565b5b80604052505050565b600061098d6106f7565b90506109998282610952565b919050565b600067ffffffffffffffff8211156109b9576109b8610923565b5b6109c2826107b4565b9050602081019050919050565b82818337600083830152505050565b60006109f16109ec8461099e565b610983565b905082815260208101848484011115610a0d57610a0c61091e565b5b610a188482856109cf565b509392505050565b600082601f830112610a3557610a34610919565b5b8135610a458482602086016109de565b91505092915050565b600060208284031215610a6457610a63610701565b5b600082013567ffffffffffffffff811115610a8257610a81610706565b5b610a8e84828501610a20565b91505092915050565b610aa08161085d565b82525050565b6000602082019050610abb6000830184610a97565b92915050565b6000819050919050565b6000610ae6610ae1610adc8461083d565b610ac1565b61083d565b9050919050565b6000610af882610acb565b9050919050565b6000610b0a82610aed565b9050919050565b610b1a81610aff565b82525050565b6000602082019050610b356000830184610b11565b92915050565b7f416c726561647920766f74656400000000000000000000000000000000000000600082015250565b6000610b71600d83610779565b9150610b7c82610b3b565b602082019050919050565b60006020820190508181036000830152610ba081610b64565b9050919050565b600081519050610bb681610715565b92915050565b600060208284031215610bd257610bd1610701565b5b6000610be084828501610ba7565b91505092915050565b7f4e6f20746f6b656e7320746f20766f7465000000000000000000000000000000600082015250565b6000610c1f601183610779565b9150610c2a82610be9565b602082019050919050565b60006020820190508181036000830152610c4e81610c12565b9050919050565b7f4e487b7100000000000000000000000000000000000000000000000000000000600052603260045260246000fd5b7f4e487b7100000000000000000000000000000000000000000000000000000000600052601160045260246000fd5b6000610cbe8261070b565b9150610cc98361070b565b9250828201905080821115610ce157610ce0610c84565b5b92915050565b6000604082019050610cfc60008301856107fe565b610d0960208301846107fe565b9392505050565b7f4e487b7100000000000000000000000000000000000000000000000000000000600052602260045260246000fd5b60006002820490506001821680610d5757607f821691505b602082108103610d6a57610d69610d10565b5b50919050565b7f496e76616c69642070726f706f73616c20696e64657800000000000000000000600082015250565b6000610da6601683610779565b9150610db182610d70565b602082019050919050565b60006020820190508181036000830152610dd581610d99565b9050919050565b60008190508160005260206000209050919050565b60006020601f8301049050919050565b600082821b905092915050565b600060088302610e3e7fffffffffffffffffffffffffffffffffffffffffffffffffffffffffffffffff82610e01565b610e488683610e01565b95508019841693508086168417925050509392505050565b6000610e7b610e76610e718461070b565b610ac1565b61070b565b9050919050565b6000819050919050565b610e9583610e60565b610ea9610ea182610e82565b848454610e0e565b825550505050565b600090565b610ebe610eb1565b610ec9818484610e8c565b505050565b5b81811015610eed57610ee2600082610eb6565b600181019050610ecf565b5050565b601f821115610f3257610f0381610ddc565b610f0c84610df1565b81016020851015610f1b578190505b610f2f610f2785610df1565b830182610ece565b50505b505050565b600082821c905092915050565b6000610f5560001984600802610f37565b1980831691505092915050565b6000610f6e8383610f44565b9150826002028217905092915050565b610f878261076e565b67ffffffffffffffff811115610fa057610f9f610923565b5b610faa8254610d3f565b610fb5828285610ef1565b600060209050601f831160018114610fe85760008415610fd6578287015190505b610fe08582610f62565b865550611048565b601f198416610ff686610ddc565b60005b8281101561101e57848901518255600182019150602085019450602081019050610ff9565b8683101561103b5784890151611037601f891682610f44565b8355505b6001600288020188555050505b505050505050565b6000602082019050818103600083015261106a81846107c5565b90509291505056fea2646970667358221220962fe4b842d1a23b5cdab109caaa9105622bf3bd03b70746c22049bedef7fa7564736f6c63430008140033",
  "linkReferences": {},
  "deployedLinkReferences": {}
}