{
  "_format": "hh-sol-artifact-1",
  "contractName": "VotingContract",
  "sourceName": "contracts/DAO/Voting.sol",
  "abi": [
    {
      "inputs": [
        {
          "internalType": "address",
          "name": "tokenAddress",
          "type": "address"
        }
      ],
      "stateMutability": "nonpayable",
      "type": "constructor"
    },
    {
      "inputs": [
        {
          "internalType": "string",
          "name": "description",
          "type": "string"
        }
      ],
      "name": "createProposal",
      "outputs": [],
      "stateMutability": "nonpayable",
      "type": "function"
    },
    {
      "inputs": [],
      "name": "getProposalCount",
      "outputs": [
        {
          "internalType": "uint256",
          "name": "",
          "type": "uint256"
        }
      ],
      "stateMutability": "view",
      "type": "function"
    },
    {
      "inputs": [
        {
          "internalType": "uint256",
          "name": "proposalIndex",
          "type": "uint256"
        }
      ],
      "name": "getProposalVotes",
      "outputs": [
        {
          "internalType": "uint256",
          "name": "",
          "type": "uint256"
        }
      ],
      "stateMutability": "view",
      "type": "function"
    },
    {
      "inputs": [
        {
          "internalType": "address",
          "name": "",
          "type": "address"
        }
      ],
      "name": "hasVoted",
      "outputs": [
        {
          "internalType": "bool",
          "name": "",
          "type": "bool"
        }
      ],
      "stateMutability": "view",
      "type": "function"
    },
    {
      "inputs": [
        {
          "internalType": "uint256",
          "name": "",
          "type": "uint256"
        }
      ],
      "name": "proposals",
      "outputs": [
        {
          "internalType": "string",
          "name": "description",
          "type": "string"
        },
        {
          "internalType": "uint256",
          "name": "voteCount",
          "type": "uint256"
        }
      ],
      "stateMutability": "view",
      "type": "function"
    },
    {
      "inputs": [],
      "name": "token",
      "outputs": [
        {
          "internalType": "contract IParticipationToken",
          "name": "",
          "type": "address"
        }
      ],
      "stateMutability": "view",
      "type": "function"
    },
    {
      "inputs": [
        {
          "internalType": "uint256",
          "name": "proposalIndex",
          "type": "uint256"
        }
      ],
      "name": "vote",
      "outputs": [],
      "stateMutability": "nonpayable",
      "type": "function"
    },
    {
      "inputs": [
        {
          "internalType": "address",
          "name": "",
          "type": "address"
        }
      ],
      "name": "votes",
      "outputs": [
        {
          "internalType": "uint256",
          "name": "",
          "type": "uint256"
        }
      ],
      "stateMutability": "view",
      "type": "function"
    }
  ],
  "bytecode": "0x60806040523480156200001157600080fd5b50604051620010a4380380620010a48339818101604052810190620000379190620000e8565b806000806101000a81548173ffffffffffffffffffffffffffffffffffffffff021916908373ffffffffffffffffffffffffffffffffffffffff160217905550506200011a565b600080fd5b600073ffffffffffffffffffffffffffffffffffffffff82169050919050565b6000620000b08262000083565b9050919050565b620000c281620000a3565b8114620000ce57600080fd5b50565b600081519050620000e281620000b7565b92915050565b6000602082840312156200010157620001006200007e565b5b60006200011184828501620000d1565b91505092915050565b610f7a806200012a6000396000f3fe608060405234801561001057600080fd5b50600436106100885760003560e01c806349c2a1a61161005b57806349c2a1a61461013a578063c08cc02d14610156578063d8bff5a514610174578063fc0c546a146101a457610088565b80630121b93f1461008d578063013cf08b146100a957806309eef43e146100da57806347c661401461010a575b600080fd5b6100a760048036038101906100a2919061065e565b6101c2565b005b6100c360048036038101906100be919061065e565b610413565b6040516100d192919061072a565b60405180910390f35b6100f460048036038101906100ef91906107b8565b6104cf565b6040516101019190610800565b60405180910390f35b610124600480360381019061011f919061065e565b6104ef565b604051610131919061081b565b60405180910390f35b610154600480360381019061014f919061096b565b610565565b005b61015e6105cb565b60405161016b919061081b565b60405180910390f35b61018e600480360381019061018991906107b8565b6105d8565b60405161019b919061081b565b60405180910390f35b6101ac6105f0565b6040516101b99190610a13565b60405180910390f35b600260003373ffffffffffffffffffffffffffffffffffffffff1673ffffffffffffffffffffffffffffffffffffffff16815260200190815260200160002060009054906101000a900460ff161561024f576040517f08c379a000000000000000000000000000000000000000000000000000000000815260040161024690610a7a565b60405180910390fd5b60008060009054906101000a900473ffffffffffffffffffffffffffffffffffffffff1673ffffffffffffffffffffffffffffffffffffffff166370a08231336040518263ffffffff1660e01b81526004016102ab9190610aa9565b602060405180830381865afa1580156102c8573d6000803e3d6000fd5b505050506040513d601f19601f820116820180604052508101906102ec9190610ad9565b905060008111610331576040517f08c379a000000000000000000000000000000000000000000000000000000000815260040161032890610b52565b60405180910390fd5b60006001838154811061034757610346610b72565b5b906000526020600020906002020190508181600101600082825461036b9190610bd0565b925050819055506001600260003373ffffffffffffffffffffffffffffffffffffffff1673ffffffffffffffffffffffffffffffffffffffff16815260200190815260200160002060006101000a81548160ff02191690831515021790555081600360003373ffffffffffffffffffffffffffffffffffffffff1673ffffffffffffffffffffffffffffffffffffffff16815260200190815260200160002081905550505050565b6001818154811061042357600080fd5b906000526020600020906002020160009150905080600001805461044690610c33565b80601f016020809104026020016040519081016040528092919081815260200182805461047290610c33565b80156104bf5780601f10610494576101008083540402835291602001916104bf565b820191906000526020600020905b8154815290600101906020018083116104a257829003601f168201915b5050505050908060010154905082565b60026020528060005260406000206000915054906101000a900460ff1681565b60006001805490508210610538576040517f08c379a000000000000000000000000000000000000000000000000000000000815260040161052f90610cb0565b60405180910390fd5b6001828154811061054c5761054b610b72565b5b9060005260206000209060020201600101549050919050565b600160405180604001604052808381526020016000815250908060018154018082558091505060019003906000526020600020906002020160009091909190915060008201518160000190816105bb9190610e72565b5060208201518160010155505050565b6000600180549050905090565b60036020528060005260406000206000915090505481565b60008054906101000a900473ffffffffffffffffffffffffffffffffffffffff1681565b6000604051905090565b600080fd5b600080fd5b6000819050919050565b61063b81610628565b811461064657600080fd5b50565b60008135905061065881610632565b92915050565b6000602082840312156106745761067361061e565b5b600061068284828501610649565b91505092915050565b600081519050919050565b600082825260208201905092915050565b60005b838110156106c55780820151818401526020810190506106aa565b60008484015250505050565b6000601f19601f8301169050919050565b60006106ed8261068b565b6106f78185610696565b93506107078185602086016106a7565b610710816106d1565b840191505092915050565b61072481610628565b82525050565b6000604082019050818103600083015261074481856106e2565b9050610753602083018461071b565b9392505050565b600073ffffffffffffffffffffffffffffffffffffffff82169050919050565b60006107858261075a565b9050919050565b6107958161077a565b81146107a057600080fd5b50565b6000813590506107b28161078c565b92915050565b6000602082840312156107ce576107cd61061e565b5b60006107dc848285016107a3565b91505092915050565b60008115159050919050565b6107fa816107e5565b82525050565b600060208201905061081560008301846107f1565b92915050565b6000602082019050610830600083018461071b565b92915050565b600080fd5b600080fd5b7f4e487b7100000000000000000000000000000000000000000000000000000000600052604160045260246000fd5b610878826106d1565b810181811067ffffffffffffffff8211171561089757610896610840565b5b80604052505050565b60006108aa610614565b90506108b6828261086f565b919050565b600067ffffffffffffffff8211156108d6576108d5610840565b5b6108df826106d1565b9050602081019050919050565b82818337600083830152505050565b600061090e610909846108bb565b6108a0565b90508281526020810184848401111561092a5761092961083b565b5b6109358482856108ec565b509392505050565b600082601f83011261095257610951610836565b5b81356109628482602086016108fb565b91505092915050565b6000602082840312156109815761098061061e565b5b600082013567ffffffffffffffff81111561099f5761099e610623565b5b6109ab8482850161093d565b91505092915050565b6000819050919050565b60006109d96109d46109cf8461075a565b6109b4565b61075a565b9050919050565b60006109eb826109be565b9050919050565b60006109fd826109e0565b9050919050565b610a0d816109f2565b82525050565b6000602082019050610a286000830184610a04565b92915050565b7f416c726561647920766f74656400000000000000000000000000000000000000600082015250565b6000610a64600d83610696565b9150610a6f82610a2e565b602082019050919050565b60006020820190508181036000830152610a9381610a57565b9050919050565b610aa38161077a565b82525050565b6000602082019050610abe6000830184610a9a565b92915050565b600081519050610ad381610632565b92915050565b600060208284031215610aef57610aee61061e565b5b6000610afd84828501610ac4565b91505092915050565b7f4e6f20746f6b656e7320746f20766f7465000000000000000000000000000000600082015250565b6000610b3c601183610696565b9150610b4782610b06565b602082019050919050565b60006020820190508181036000830152610b6b81610b2f565b9050919050565b7f4e487b7100000000000000000000000000000000000000000000000000000000600052603260045260246000fd5b7f4e487b7100000000000000000000000000000000000000000000000000000000600052601160045260246000fd5b6000610bdb82610628565b9150610be683610628565b9250828201905080821115610bfe57610bfd610ba1565b5b92915050565b7f4e487b7100000000000000000000000000000000000000000000000000000000600052602260045260246000fd5b60006002820490506001821680610c4b57607f821691505b602082108103610c5e57610c5d610c04565b5b50919050565b7f496e76616c69642070726f706f73616c20696e64657800000000000000000000600082015250565b6000610c9a601683610696565b9150610ca582610c64565b602082019050919050565b60006020820190508181036000830152610cc981610c8d565b9050919050565b60008190508160005260206000209050919050565b60006020601f8301049050919050565b600082821b905092915050565b600060088302610d327fffffffffffffffffffffffffffffffffffffffffffffffffffffffffffffffff82610cf5565b610d3c8683610cf5565b95508019841693508086168417925050509392505050565b6000610d6f610d6a610d6584610628565b6109b4565b610628565b9050919050565b6000819050919050565b610d8983610d54565b610d9d610d9582610d76565b848454610d02565b825550505050565b600090565b610db2610da5565b610dbd818484610d80565b505050565b5b81811015610de157610dd6600082610daa565b600181019050610dc3565b5050565b601f821115610e2657610df781610cd0565b610e0084610ce5565b81016020851015610e0f578190505b610e23610e1b85610ce5565b830182610dc2565b50505b505050565b600082821c905092915050565b6000610e4960001984600802610e2b565b1980831691505092915050565b6000610e628383610e38565b9150826002028217905092915050565b610e7b8261068b565b67ffffffffffffffff811115610e9457610e93610840565b5b610e9e8254610c33565b610ea9828285610de5565b600060209050601f831160018114610edc5760008415610eca578287015190505b610ed48582610e56565b865550610f3c565b601f198416610eea86610cd0565b60005b82811015610f1257848901518255600182019150602085019450602081019050610eed565b86831015610f2f5784890151610f2b601f891682610e38565b8355505b6001600288020188555050505b50505050505056fea26469706673582212201c3f7c128128a066c3990a6557b546881e7fc39404eade26463136bfacb37c5364736f6c63430008140033",
  "linkReferences": {},
  "deployedLinkReferences": {}
}